:020000040800F2
:1000000008A9002061020008498500082F65000842
:1000100075840008A90C00080DCE0008000000003F
:10002000000000000000000000000000A101000826
:10003000AD22000800000000FD01000859C20008C0
:100040007B0200087B0200087B0200087B0200089C
:100050007B0200087B020008AF2200087B02000838
:100060007B020008B9220008C32200087B020008B6
:100070007D1400087B0200087B0200087B02000858
:100080007B0200087B0200087B0200087B0200085C
:10009000850E00087B0200087B020008CD220008C4
:1000A0007B0200087B0200087B0200087B0200083C
:1000B0007B0200087B0200087B0200087B0200082C
:1000C0007B0200087B0200087B0200087B0200081C
:1000D0007B0200089DCC00087B020008EDCC0008E4
:1000E0007B0200087B0200087B0200087B020008FC
:1000F0007B0200087B0200087B0200087B020008EC
:100100007B0200087B0200087B0200087B020008DB
:100110007B0200087B020008A5C300087B020008E0
:100120007B0200088D1400089D1400087B02000863
:10013000351D00087B0200087B0200087B020008D6
:10014000E90E00087B0200087B0200087B02000821
:10015000451D00087B0200087B02000875CD0008E1
:100160007B0200087B0200087B0200087B0200087B
:100170007B0200087B0200087B02000800000000F0
:100180007B0200087B020008DFF810D000F00AFABA
:100190000048004771F10008AFF3008008A9002073
:1001A0002C4B19680868B0E8F04F80F30988BFF35A
:1001B0006F8F4FF0000080F311887047000000003F
:1001C00008480068006880F308884FF0000080F35A
:1001D000148862B661B6BFF34F8FBFF36F8F00DF35
:1001E00000BF00BF08ED00E0DFF80C00016841F43B
:1001F00070010160704700BF88ED00E0EFF30980F7
:10020000BFF36F8F134B1A681EF0100F08BF20ED5D
:10021000108A20E9F04F106009B44FF0500080F3CD
:100220001188BFF34F8FBFF36F8F10F0DBFB4FF0E0
:10023000000080F3118809BC19680868B0E8F04F25
:100240001EF0100F08BFB0EC108A80F30988BFF3CE
:100250006F8F7047600B0020EFF305807047000040
:100260000648804706480047FEE7FEE7FEE7FEE750
:10027000FEE7FEE7FEE7FEE7FEE7FEE741C3000814
:10028000890100082DE9F05F0546002092469B4653
:1002900088460646814640241BE02846414647469C
:1002A000224600F089F853465A46C01A914110D3AD
:1002B00011461846224600F070F82D1A67EB010827
:1002C0004F4622460120002100F067F817EB000995
:1002D0004E41201EA4F10104DFDC484631462A4687
:1002E0004346BDE8F09F40EA01039B0703D009E0C5
:1002F00008C9121F08C0042AFAD203E011F8013B12
:1003000000F8013B521EF9D27047D2B201E000F86A
:10031000012B491EFBD270470022F6E710B51346A9
:100320000A4604461946FFF7F0FF204610BD421C5E
:1003300010F8011B0029FBD1801A704700F0004221
:1003400030F000400AD0C10D01F56071C0F3160015
:1003500042EA0151C208400711437047002001469C
:10036000704701F0004330B421F0004150EA01022F
:1003700006D00A0DA2F56072C1F31301002A02DC57
:1003800030BC00207047440F44EAC104C100E018AB
:1003900030BC00EBC25000F01FB8202A04DB203A2A
:1003A00000FA02F1002070479140C2F1200320FAC8
:1003B00003F3194390407047202A04DB203A21FAC6
:1003C00002F00021704721FA02F3D040C2F120026E
:1003D00091400843194670470029A8BF7047401C48
:1003E000490008BF20F00100704710B4B0FA80FC4B
:1003F00000FA0CF050EA010404BF10BC704749B188
:10040000CCF1200421FA04F411FA0CF118BF0121F7
:1004100021430843A3EB0C01CB1D4FEA00614FEAD7
:10042000102042BF002010BC704700EBC3501044A6
:100430000029A4BF10BC7047401C490008BF20F031
:10044000010010BC704710B5141E73F1000408DAE7
:10045000401C41F1000192185B411A4301D120F088
:10046000010010BD2DE9F04D92469B4611B1B1FA45
:1004700081F202E0B0FA80F220329046FFF78DFF61
:1004800004460F4640EA0A0041EA0B0153465A4629
:10049000084313D0114653EA010019D0C8F14002B5
:1004A0005046FFF789FF05460E46504659464246DC
:1004B000FFF773FF084305D0012004E020463946CA
:1004C000BDE8F08D0020054346EAE0762C43374333
:1004D0000A986305E40AA0EB08000022FD0A44EA3A
:1004E00047540A3002D500200146E9E701051019FA
:1004F0006941DDE9084500196941BDE8F04DA2E711
:100500002DE9F04D00231A461B1A8A4103DB002017
:100510000146BDE8F08DC1F30A52C1F3130141F465
:1005200080154FF0000BD10702D100186D41521E0B
:100530000027044640F2FF11384601EB620A3E46AE
:100540008046024600204FF48011FFF735FFC219A4
:100550007141BB1846EB0100B4EB030C75EB000CCA
:1005600004D3E41A65EB000517460E46241908F17A
:1005700001006D4180463428E3DDF91946EB0600A1
:10058000091BA84103D24FF0FF32134601E00022BD
:1005900013461BEB070046EB0A51BDE8F04DFFF791
:1005A00052BF0000064C074D06E0E06840F0010332
:1005B00094E8070098471034AC42F6D3FFF7E8FD03
:1005C000E81C0108081D010870B58C1810F8015BC3
:1005D00015F0070301D110F8013B2A1106D110F8DC
:1005E000012B03E010F8016B01F8016B5B1EF9D1E0
:1005F0002B0705D40023521E0DD401F8013BFAE766
:1006000010F8013BCB1A921C03E013F8015B01F8D0
:10061000015B521EF9D5A142D8D3002070BD000065
:10062000B7EE000A80ED000A9FED060A80ED010A90
:100630009FED040A80ED020A9FED020A80ED030A95
:1006400070470000000000002DE9F0412DED028B05
:100650000746B0EE408A0C4615461E46D6ED024AC5
:10066000B0EE644AD6ED014AF0EE643AD6ED004AA7
:10067000B0EE643AD5ED024AF0EE642AD5ED014AB7
:10068000B0EE642AD5ED004AF0EE641AD4ED024AC9
:10069000B0EE641AD4ED014AF0EE640AD4ED004ADB
:1006A000B0EE640A384607F091FABDEC028BBDE863
:1006B000F081000010B588B004460FF031FE0DF057
:1006C000DBFF00F0F3FA0DF0A3FE00F023FC00F0D6
:1006D0003FFC244841682448884708F079FE00F030
:1006E00099FD2248C1682248884720490868804708
:1006F000204804F05DFE1F4805F050F804211D4815
:1007000005F0ECF940F2D6601A49096888630821BF
:10071000184805F0E3F941F2040016490968C86376
:1007200015480068406940F00200134909684861B3
:1007300012480068406940F00200104909684861A9
:100740001C220F4901A8FFF7CEFD002101A80EF0E1
:1007500061FD0C4908600FF00DFE00200FF09EFFB8
:1007600008B010BDF400002050160020FC07002047
:100770000C1600204414002088120020B012002023
:10078000001B01082800002010B54D48C078012842
:100790001AD04C480068012816D14B48006806283A
:1007A00003D04948006802280ED14848B0F920001B
:1007B000B0F51B7F05DB4648808B401C444988838D
:1007C00002E00020424988833D48C07801282BD0B0
:1007D0003C480068012827D13B480068052823D100
:1007E0003A48B0F92000B0F51B7F1ADB3948807811
:1007F00001280FD13748407801280BD136480078BE
:1008000090B93348808B401C31498883012032499C
:10081000087009E02F48807830B900202C4988837F
:1008200002E000202A4988832548C078012805D0A5
:100830002448006810B90020254988832048C078E2
:1008400001282AD120480068052826D1214880782F
:10085000012803D11F48407801280BD01F480021F0
:1008600082681020904728B91C4801218268102016
:10087000904778B11A48008801280BD116480078B3
:1008800058B91348808B401C1149888301201249B4
:10089000087002E000200E4988830F480078012884
:1008A0000DD110480078401C0E49087008460078A9
:1008B000552804DB0020084908700A49087010BD5B
:1008C000B008002028010020AC080020081E0020ED
:1008D0002424002028210020D1090020F400002039
:1008E000CC080020D009002010B5012210210248B8
:1008F00003F06CF910BD00000000024010B50022AA
:100900001021024803F062F910BD0000000002400F
:100910007047000010B501221146024803F056F955
:1009200010BD00000004024010B500220121024861
:1009300003F04CF910BD00000004024010B54378EC
:100940001B021BB20478234300EE103AB8EEC01A23
:100950001C4BD3ED001A21EE211A81ED001AC37849
:100960001B021BB28478234300EE103AB8EEC01A83
:10097000144BD3ED001A21EE211A81ED011A4379AF
:100980001B021BB20479234300EE103AB8EEC01AE2
:100990000C4BD3ED001A21EE211A81ED021A037AD5
:1009A0001B04C47943EA04238479234300EE903A7C
:1009B000B8EE601ADFED041A21EE211A82ED001A5A
:1009C00010BD00003C00002000401C42704710B5E4
:1009D000044620460EF0F9FB10BD10B50446204633
:1009E0000DF062FE10BD00004278120212B20378D0
:1009F0001A4300EE102AF8EEC00A144A92ED001ACB
:100A000060EE810AC1ED000AC278120212B2837848
:100A10001A4300EE102AF8EEC00A0C4A92ED001AB2
:100A200060EE810AC1ED010A4279120212B2037925
:100A30001A4300EE102AF8EEC00A044A92ED001A9A
:100A400060EE810AC1ED020A7047000040000020FC
:100A500010B50024FFF75CFFFFF7B8FF0DF096F923
:100A600010B144F0800402E00DF0F6F804430DF0FC
:100A700085FB10B144F0400402E00DF005FB044397
:100A8000204610BD2DE9FC4105460E4617460020C4
:100A900000900190FFF732FF922000F0D1F806227B
:100AA0006946122000F0ACF8FFF71EFF9DF8010028
:100AB000000200B29DF8001040EA010400EE104A66
:100AC000B8EEC00A4C48D0ED000A20EE200A86EDB0
:100AD000000A9DF80300000200B29DF8021040EAEF
:100AE000010400EE104AB8EEC00A4348D0ED000AF7
:100AF00020EE200A86ED010A9DF80500000200B2F2
:100B00009DF8041040EA010400EE104AB8EEC00A55
:100B10003948D0ED000A20EE200A86ED020AFFF7E0
:100B200003FF08226946002000F06AF8FFF7F2FE92
:100B30009DF800000F2838D19DF80300000200B294
:100B40009DF8021040EA010400EE104AB8EEC00A17
:100B50002A48D0ED000A20EE200A85ED000A9DF813
:100B60000500000200B29DF8041040EA010400EE06
:100B7000104AB8EEC00A2148D0ED000A20EE200A43
:100B800085ED010A9DF80700000200B29DF80610ED
:100B900040EA010400EE104AB8EEC00A1748D0ED52
:100BA000000A20EE200A85ED020AFFF7A7FEA22028
:100BB00000F046F802226946222000F021F8FFF7F3
:100BC00093FE9DF80000C0009DF8011040EA6114FA
:100BD000B4F5806F02DBA4F5006004B200EE104AA9
:100BE000F8EEC00AB4EE001AB3EE070A00EE810A6E
:100BF00087ED000ABDE8FC813C0000204000002099
:100C000070B506460C46154646F0800000F018F810
:100C100006E0552000F014F82070641C681EC5B270
:100C2000002DF6D170BD70B504460D4644F080002D
:100C300000F006F8552000F003F8287070BD0000A1
:100C400001B582B04FF47A70012301AA02A9009085
:100C5000024804F031F99DF804000EBD2C13002069
:100C600010B502461378DB00547843EA6410B0F5FF
:100C7000806F02DBA0F5006318B200EE100AF8EEF8
:100C8000C00AB4EE001AB3EE070A00EE810A81ED45
:100C9000000A10BD70B505460C462846FFF7D0FF88
:100CA0002046FFF7CDFF70BD00BFFEE710B508215D
:100CB000054804F013FF00200449087048800872BA
:100CC0008880C88010BD00008C140020BC25002046
:100CD0004748007820B1012809D0022848D13FE0D8
:100CE00000204349488088800872C88079E04048E5
:100CF0008088401C3E4988800846C088012801D170
:100D0000002008703A4989884FF4967291FBF2F0FE
:100D100000EBD0714910A0EB410139B93449097A8F
:100D200021B98720324948800120087230498988DA
:100D30004FF4967291FBF2F000EBD0714910A0EBEA
:100D4000410101290BD12A49097A012907D1002043
:100D50002749488008720846C088401CC88040E087
:100D6000052023494880002088800872C88038E028
:100D70001F488088401C1E4988800846C088032878
:100D800001D1002008701A4989884FF4967291FBAE
:100D9000F2F000EBD0714910A0EB410139B91449D0
:100DA000097A21B987201249488001200872104928
:100DB00089884FF4967291FBF2F000EBD0714910E4
:100DC000A0EB410101290BD10949097A012907D179
:100DD00000200749488008720846C088401CC88027
:100DE00000BF00BF0248408802490968C8637047D5
:100DF000BC2500208C1400208EB000BF4FF0FF32C5
:100E000005A91E48006810F099F9059C1C4804606B
:100E100040F20720844209D1142209A96846FFF74D
:100E200062FA05A80FC806F08DF9E7E740F2062040
:100E3000844209D1142209A96846FFF754FA05A88B
:100E40000FC806F07FF9D9E7882C09D1142209A927
:100E50006846FFF748FA05A80FC807F08DFDCDE7F3
:100E600040F201308442C9D1142209A96846FFF733
:100E70003AFA05A80FC807F0B5FCBFE7100000203C
:100E8000400B002010B508480068406900F00200DF
:100E900030B1012205480168034800F079F800BF2D
:100EA000014801F01FFF10BD881200201000002033
:100EB0008EB000BF4FF0FF3205A90A48006810F05D
:100EC0003DF9059CB4F5007FF4D9B4F5017FF1D26A
:100ED000142209A96846FFF706FA05A80FC806F00C
:100EE000A9F8E7E71400002010B508480068406939
:100EF00000F0020030B1022205480168034800F00A
:100F000047F800BF014801F0EDFE10BDB01200200F
:100F10001400002000B58BB000200690079001203F
:100F20000890002001900290039004900590012009
:100F3000099001A9054801F085FD044802F069F90E
:100F40000221024801F0BEFC0BB000BD8812002057
:100F500000B58BB00E200A9006900020079001206B
:100F600008900020019002900390049005900120C9
:100F7000099001A9054801F065FD044802F049F90E
:100F80000221024801F09EFC0BB000BDB01200200F
:100F9000F0B593B007460D461646701EC4B204EB7A
:100FA000440000EB04101F4901EB800000F14403F2
:100FB00004EB440000EB041001EB800000F1280278
:100FC0000021384601F0D1FD04EB440202EB04128B
:100FD000144B03EB820202F1280104EBC40201ABC3
:100FE00003EB82001C22FFF77EF904EBC40001A989
:100FF00001EB800104EB440000EB0410094A02EB12
:101000008000826C406CC1E9070204EBC40001AAB5
:1010100002EB800100231A46284610F011F813B0A5
:10102000F0BD00000C26002008B50146F0EE401A85
:10103000B0EE602AC1ED001A81ED012A91ED000A9F
:10104000D1ED010A30EE600A81ED020A91ED020A4B
:10105000D1ED030A30EE600AD1ED050A20EE200A38
:10106000F0EE402A91ED060AD1ED020A20EE200AA8
:101070008DED000A91ED020AD1ED030AB0EE001ADF
:1010800001EE600AD1ED040A30EE200AD1ED070A24
:1010900020EE200AB0EE403AD1ED0D0AB0EE600A23
:1010A00068460CF0C1FD91ED0B0ADDED000A72EE11
:1010B000A00A70EE830A30EE200A81ED0B0AD1ED12
:1010C0000C0AB0EE600A01F12C000CF0ADFD91EDC0
:1010D000030A81ED040A91ED020A81ED030A91ED04
:1010E0000B0A08BD00B50146F0EE401AB0EE602ACA
:1010F00011B99FED3B0A00BDC1ED001A81ED012A37
:1011000091ED000AD1ED010A30EE600A81ED020A8C
:1011100091ED020AD1ED030A30EE600A81ED040A76
:1011200091ED050AD1ED020A20EE200A81ED080AB0
:1011300091ED090AD1ED060A91ED021A00EE810A3D
:1011400081ED090A91ED020AD1ED030A30EE600A41
:10115000D1ED070A20EE200A81ED0A0AD1ED0E0A30
:10116000B0EE600A01F124000CF05EFD91ED020A80
:10117000BDEEC00A10EE100A002801DB024600E0B6
:10118000424200EE102AB8EEC00AD1ED0D0AB4EECC
:10119000E00AF1EE10FA08DB91ED080AD1ED0A0A37
:1011A00030EE200A81ED0B0A0BE091ED080AD1ED3B
:1011B000090A30EE200AD1ED0A0A30EE200A81ED4C
:1011C0000B0AD1ED0C0AB0EE600A01F12C000CF014
:1011D0002BFD91ED020A81ED030A91ED0B0A8AE7DE
:1011E0000000000010B50A4890ED0D2AF0EE421AFA
:1011F00090ED0E2AB0EE421A90ED0A2AF0EE420A65
:1012000090ED0C2AB0EE420A00F020F810BD00006C
:10121000AC0000209FED080A084880ED230A9FEDEE
:10122000080A80ED490A9FED070A80ED6F0A9FEDDD
:10123000060A80ED950A7047000001C2A81B002035
:10124000CDCCB1C27B140942A4B0174300B5B0EEB7
:10125000402AF0EE602AB0EE413AB0EE431AF0EECA
:10126000620AB0EE420A0AF001FF00BD0948B0F878
:101270004400012804DA0120064981F8460003E011
:101280000020044981F8460000200249A1F84400EA
:1012900070470000AC00002000201BE00F4951F80F
:1012A0002010B1F87610012906DA01210B4A52F814
:1012B000202082F8781005E00021084A52F820200A
:1012C00082F878100021054A52F82020A2F8761002
:1012D000411CC8B20328E1DB704700007C000020FD
:1012E00004201BE00F4951F82010B1F87E100129AD
:1012F00006DA01210B4A52F8202082F8801005E01E
:101300000021084A52F8202082F880100021054A66
:1013100052F82020A2F87E10411CC8B20628E1DB5A
:1013200070470000900000200F48B0F84E000E49B2
:10133000496D884204D90C48B0F84E000A49486506
:101340000948B0F84E00012804DA0020064981F867
:10135000500003E00120044981F8500000200249B8
:10136000A1F84E00704700002821002010B5024669
:10137000002004E012F8013B4340044CE05C0B1EEB
:10138000A1F10104A1B2F5D110BD0000581B010864
:1013900010B50A4890ED0D2AF0EE421A90ED0E2A93
:1013A000B0EE421A90ED0A2AF0EE420A90ED0C2AB5
:1013B000B0EE420A00F004F810BD0000AC000020BE
:1013C00010B52DED048BB0EE408AF0EE608AB0EEE1
:1013D000419AF0EE619AF0EE691AB0EE491AF0EE19
:1013E000680AB0EE480A0BF0F1FEBDEC048B10BDAC
:1013F0000246501AB0F5805F03DDA0F5F850FF38C3
:1014000005E010F5805F02DA41F6FF73184470477B
:1014100090ED000AB5EEC00AF1EE10FA02DD90ED93
:10142000000A03E090ED000AB1EE400AD0ED010A97
:10143000F5EEC00AF1EE10FA02DDD0ED010A03E08C
:10144000D0ED010AF1EE600AB4EEE00AF1EE10FA16
:1014500004D29FED080A80ED000A09E090ED000A31
:10146000D0ED000A9FED041A00EEC10A80ED000ADB
:101470007047000000000000CDCC4C3E10B5024883
:1014800001F068FF10BD00003817002010B50248B9
:1014900001F060FF10BD00009817002010B5FE4855
:1014A000C06C0068FD49884276D9FC485438006811
:1014B000F949C96C0968FA4A914201D1202169E0D1
:1014C000F549C96C0968F54A483A914201D1202191
:1014D00060E0F149C96C0968F14A6032914201D17A
:1014E000202157E0EC49C96C0968EC4A1832914256
:1014F00001D120214EE0E849C96C0968E84A183258
:10150000914201D1C91445E0E349C96C0968E34A35
:10151000303A914201D1C9143CE0DF49C96C0968F5
:10152000DF4A7832914201D1C91433E0DA49C96CFB
:101530000968DA4A3032914201D1C9142AE0D64909
:10154000C96C0968D64A3032914202D14FF4001179
:1015500020E0D149C96C0968D04A183A914202D1B9
:101560004FF4001116E0CC49C96C0968CC4A90329E
:10157000914202D14FF400110CE0C749C96C0968CF
:10158000C64A4832914203D14FF4001102E003E011
:101590004FF00061084070E1BF48C06C0068C0496E
:1015A000A831884276D9BD4858380068BA49C96C14
:1015B0000968BB4A914201D1202169E0B649C96C52
:1015C0000968B64A483A914201D1202160E0B24907
:1015D000C96C0968B24A6032914201D1202157E0BA
:1015E000AD49C96C0968AD4A1832914201D1202138
:1015F0004EE0A949C96C0968A94A1832914201D143
:10160000C91445E0A449C96C0968A44A303A91421A
:1016100001D1C9143CE0A049C96C0968A04A7832DC
:10162000914201D1C91433E09B49C96C09689B4AB6
:101630003032914201D1C9142AE09749C96C096836
:10164000974A3032914202D14FF4001120E0924982
:10165000C96C0968914A183A914202D14FF40011BD
:1016600016E08D49C96C09688D4A9032914202D1C9
:101670004FF400110CE08849C96C0968874A483268
:10168000914203D14FF4001102E003E04FF00061FA
:101690000840F2E08048C06C0068814948318842C7
:1016A00076D97F48103840687B49C96C09687C4A04
:1016B000914201D1202169E07749C96C0968774AD4
:1016C000483A914201D1202160E07349C96C096810
:1016D000734A6032914201D1202157E06E49C96CB2
:1016E00009686E4A1832914201D120214EE06A49C0
:1016F000C96C09686A4A1832914201D1C91445E09F
:101700006549C96C0968654A303A914201D1C914EA
:101710003CE06149C96C0968614A7832914201D163
:10172000C91433E05C49C96C09685C4A30329142A3
:1017300001D1C9142AE05849C96C0968584A3032A5
:10174000914202D14FF4001120E05349C96C09685D
:10175000524A183A914202D14FF4001116E04E4914
:10176000C96C09684E4A9032914202D14FF400117F
:101770000CE04949C96C0968484A4832914203D192
:101780004FF4001102E003E04FF00061084074E004
:101790004348103800684049C96C0968404A914282
:1017A00001D1202168E03C49C96C09683B4A483AAC
:1017B000914201D120215FE03749C96C0968384A5C
:1017C0006032914201D1202156E03349C96C096849
:1017D000324A1832914201D120214DE02E49C96C84
:1017E00009682F4A1832914201D1C91444E02A49AC
:1017F000C96C0968294A303A914201D1C9143BE0C9
:101800002549C96C0968264A7832914201D1C91428
:1018100032E02149C96C0968204A3032914201D135
:10182000C91429E01C49C96C09681D4A303291422B
:1018300002D14FF400111FE01749C96C0968174A1B
:10184000183A914202D14FF4001115E01249C96CC7
:101850000968134A9032914202D14FF400110BE013
:101860000D49C96C09680D4A4832914202D14FF4C2
:10187000001101E04FF00061084000286FD00648D9
:10188000C06C0068054988427BD90348C06C006879
:101890000349884208D105E02C1300205864024017
:1018A00010600240202068E0FE48C06C0068FE49DD
:1018B000884201D1202060E0FA48C06C0068FB49F2
:1018C000884201D1202058E0F648C06C0068F649F3
:1018D0006031884201D120204FE0F248C06C00689E
:1018E000F2494839884201D1C01446E0ED48C06C45
:1018F0000068ED491831884201D1C0143DE0E94843
:10190000C06C0068E9491831884201D1C01434E044
:10191000E448C06C0068E4497831884201D1C014C1
:101920002BE0E048C06C0068E0493039884202D1C1
:101930004FF4001021E0DB48C06C0068DA49303118
:10194000884202D14FF4001017E0D648C06C0068FE
:10195000D6493031884204D14FF400100DE0DFE168
:101960000FE0D048C06C0068CF499031884202D166
:101970004FF4001001E04FF00060CB49091F0860F0
:101980006AE1C848C06C0068C8494831884274D9C7
:10199000C448C06C0068C5496039884201D1202024
:1019A00066E0C048C06C0068BF49884201D1202071
:1019B0005EE0BC48C06C0068BC49884201D1202070
:1019C00056E0B848C06C0068B7496031884201D120
:1019D00020204DE0B348C06C0068B44948398842C3
:1019E00001D1C01444E0AF48C06C0068AE49183162
:1019F000884201D1C0143BE0AA48C06C0068AB49E2
:101A00001831884201D1C01432E0A648C06C006889
:101A1000A5497831884201D1C01429E0A148C06CA1
:101A20000068A2493039884202D14FF400101FE00B
:101A30009C48C06C00689C493031884202D14FF408
:101A4000001015E09748C06C006898493031884212
:101A500002D14FF400100BE09248C06C006892492C
:101A60009031884202D14FF4001001E04FF0006045
:101A70008D4908390860EFE0FFE78A48C06C0068CC
:101A80008A491839884274D98648C06C00688749E9
:101A90006039884201D1202066E08248C06C00682D
:101AA0008149884201D120205EE07E48C06C0068F8
:101AB0007E49884201D1202056E07A48C06C0068F7
:101AC00079496031884201D120204DE07548C06CD1
:101AD000006876494839884201D1C01444E0714811
:101AE000C06C006870491831884201D1C0143BE0D5
:101AF0006C48C06C00686D491831884201D1C0142F
:101B000032E06848C06C006867497831884201D18A
:101B1000C01429E06348C06C0068644930398842C9
:101B200002D14FF400101FE05E48C06C00685E49AF
:101B30003031884202D14FF4001015E05948C06C92
:101B400000685A493031884202D14FF400100BE04E
:101B50005448C06C006854499031884202D14FF417
:101B6000001001E04FF0006050497039C86073E028
:101B7000FFE74C48C06C00684C496039884201D18D
:101B8000202066E04748C06C00684749884201D180
:101B900020205EE04348C06C00684449884201D17F
:101BA000202056E03F48C06C00683F4960318842C1
:101BB00001D120204DE03B48C06C00683B494839CA
:101BC000884201D1C01444E03648C06C00683649F0
:101BD0001831884201D1C0143BE03248C06C006823
:101BE00032491831884201D1C01432E02D48C06C0E
:101BF00000682D497831884201D1C01429E0294874
:101C0000C06C006829493039884202D14FF4001075
:101C10001FE02448C06C006823493031884202D15B
:101C20004FF4001015E01F48C06C00681F493031A8
:101C3000884202D14FF400100BE01A48C06C0068D3
:101C400019499031884202D14FF4001001E04FF061
:101C500000601649703988601548007800F002006D
:101C600078B11348007820F0020011490870084646
:101C7000007840F004000870012211460D4801F080
:101C8000A5FF0D48007800F00200E0B10A48007896
:101C900020F00200084908700846007840F004006F
:101CA00008700BE02C1300201064024070600240AA
:101CB000710A002000040240720A00200122102153
:101CC000184801F083FF1848007800F0020078B14E
:101CD0001548007820F00200134908700846007883
:101CE00040F004000870012210210E4801F06EFF40
:101CF0000CF0ACFF0D48007800F0040080B10B48F8
:101D0000007820F00400094908700846007840F087
:101D1000080008700648006840F0010004490860A7
:101D200010BD000000000240730A0020710A00206C
:101D3000103C014010B5024801F00CFB10BD000042
:101D4000AC15002010B5024801F004FB10BD0000E6
:101D5000D81600200146087810381823B0FBF3F29B
:101D60000848805CC865032A05D908686FF3090034
:101D7000001D886503E008686FF309008865886DB9
:101D800070470000701C0108014600208A6A8B69B8
:101D9000CBB932B1012A0DD0022A03D0032A10D1C7
:101DA0000EE000BFCB6A03F08073B3F1807F00D1F7
:101DB000012007E0CB6AB3F1C07F00D1012001E030
:101DC00000E000BF34E08B69B3F5005F1AD132B197
:101DD000012A07D0022A03D0032A11D10AE000BF4A
:101DE00001200EE0CB6A03F08073B3F1807F00D155
:101DF000012006E0CB6AB3F1C07F00D1012000E0F2
:101E000000BF15E032B1012A05D0022A04D0032A0E
:101E10000CD103E000BF00BF012008E0CB6A03F053
:101E20008073B3F1807F00D1012000E000BF00BFCC
:101E3000704730B50468246824F4802405682C6059
:101E4000046863608468402C04D10468A26004685C
:101E5000E16003E00468A1600468E26030BD000056
:101E60002DE9FC4107460C4615461E460020009011
:101E7000019013498860C8600820086140F275101D
:101E80000860380A8DF80000F8B28DF80100200AC9
:101E90008DF80200E0B28DF80300280A8DF80400E6
:101EA000E8B28DF80500300A8DF80600F0B28DF822
:101EB000070000236A46034800F019FDBDE8FC81D5
:101EC000A0210020881200202DE9FC4107460C4685
:101ED00015461E4600200090019013498860C86096
:101EE0000820086140F285100860380A8DF800006B
:101EF000F8B28DF80100200A8DF80200E0B28DF8EA
:101F00000300280A8DF80400E8B28DF80500300AB5
:101F10008DF80600F0B28DF8070000236A460348EA
:101F200000F0E5FCBDE8FC81A02100208812002023
:101F30002F48807F01280AD02D48807F032806D0B3
:101F40002B48807F022802D02948807FF0BB284898
:101F5000C07F01280AD02648C07F032806D0244825
:101F6000C07F022802D02248C07F78BB2048B0F949
:101F70001600B0F5257F37DC1D48B0F9160010F5C6
:101F8000257F31DB1A48B0F91800B0F5257F2BDC2E
:101F90001748B0F9180010F5257F25DB1448B0F973
:101FA0001A00B0F5257F1FDC1148B0F91A0010F5B2
:101FB000257F19DB0E48B0F91C00B0F5257F13DC36
:101FC0000B48B0F91C0010F5257F00E00CE00BDB9E
:101FD0000748B0F92000B0F5257F05DC0448B0F9CA
:101FE000200010F5257F01DA012070470020FCE772
:101FF000081E002010B50446A06B0068006820F0A1
:102000000100A16B09680860A06B006840680428A3
:1020100002D1084800F010F81620A16B096848604A
:10202000A06B0068006840F00100A16B09680860BF
:1020300010BD0000081E002010B5044604B910BDF4
:102040002078617840EA0120C0F30A007449C88210
:102050006078C010A17840EA4110C0F30A017048CE
:102060000183A0788011E17840EA8100217940EA7B
:102070008120C0F30A016A484183207940106179C8
:1020800040EAC110C0F30A016548818360790011FC
:102090008108634881776079C0F301116048C17796
:1020A000A079E17940EA012000B25D494884207AB4
:1020B000617A40EA012001B259488184A07AE17A2C
:1020C00040EA012001B25648C184217B80F82810E3
:1020D000617B80F82910A07BE17B40EA0120504918
:1020E0004885207C617C40EA0120C0F30A014C480D
:1020F00001844C48B0F84400401C4A49A1F844000F
:102100004748C08AA0F5806000B24549C8820846A9
:10211000008BA0F5806001B241480183408BA0F59F
:10212000806001B23E484183808BA0F5806001B29F
:102130003B488183008CA0F5806001B2384801845F
:10214000B0F91600052808DC3548B0F9160010F182
:10215000050F02DB00203249C8823148B0F918006F
:10216000052808DC2E48B0F9180010F1050F02DB35
:1021700000212B4801832A48B0F91A00052808DC01
:102180002748B0F91A0010F1050F02DB002124489E
:1021900041832348B0F91C00052808DC2048B0F929
:1021A0001C0010F1050F02DB00211D4881831C4833
:1021B000B0F92000052808DC1948B0F9200010F11A
:1021C000050F02DB0021164801841548807F154960
:1021D000096C08701248C07F1249096C4870104899
:1021E000B0F9220000EE100AB8EEC00ADFED0E0AC8
:1021F00020EE200A0B4880ED000A0948B0F92400BF
:1022000000EE100AB8EEC00ADFED080A20EE200A40
:10221000044880ED010A04F077FE00BF0FE70000DC
:10222000081E0020AC000020CDCC4C3D9A99193FEF
:1022300038B5044600BF0020009020680068009078
:1022400020684068009000BF00BF2068C06840F46C
:1022500000502168C8602068C06840F01000216804
:10226000C8601622024920460AF08CFD38BD0000E5
:10227000081E002008B50FF05BF9009000BF00BFFA
:1022800007494869804707494868804706494869BF
:102290008047FFF725F8C82168460EF095F9EFE76B
:1022A000FC07002088000020F4000020704710B5D3
:1022B000012001F07BFB10BD10B5082001F076FB7A
:1022C00010BD10B5102001F071FB10BD10B520201D
:1022D00001F06CFB10BD70474A48D0ED000A9FED3D
:1022E0004A1A9FED4A0A00EE810A494880ED000A29
:1022F0004448D0ED020A9FED441A9FED440A00EED7
:10230000810A434880ED010A424890ED020ADFED60
:102310003E0A20EE200A3E4880ED080A3D4890ED36
:10232000000ADFED390A20EE200A394880ED090A5B
:1023300090ED000AD0ED020A30EE600ADFED360AB9
:10234000B4EEE00AF1EE10FA03D20069401C304905
:1023500008612F4890ED020AD0ED000A30EE600AC5
:10236000DFED2D0AB4EEE00AF1EE10FA03D20069B7
:10237000401E27490861264890ED000AD0ED040A66
:10238000F8EEE00A9FED251A00EE810A80ED060ABC
:1023900090ED000A80ED020A90ED010AD0ED030AEB
:1023A00030EE600ADFED1C0AB4EEE00AF1EE10FA3E
:1023B00003D24069401C16494861154890ED030A54
:1023C000D0ED010A30EE600ADFED130AB4EEE00A48
:1023D000F1EE10FA03D24069401E0D4948610C48E5
:1023E00090ED010AD0ED050AF8EEE00A9FED0B1A18
:1023F00000EE810A80ED070A90ED010A80ED030AE4
:1024000070470000A4250020E02E65420000344300
:1024100040180020B0250020000096C30000B443FF
:1024200010B5002201B909E0012901D10A0205E035
:10243000022901D10A0201E04FF440720E4B1B68E1
:1024400023F440730C4C236023461B681343236022
:1024500023461B6823F0F803236023461B680224ED
:1024600044EAC0042343044C236023461B6843F41E
:102470008033236010BD0000103C02401C480068FF
:1024800000F40070B0B11A48006820F400701849D8
:10249000086000BF0846006840F400600860084615
:1024A000006820F40060086000BF0846006840F43F
:1024B000007008600E48006800F48060B0B10C48FD
:1024C000006820F480600A49086000BF0846006880
:1024D00040F4805008600846006820F4805008608E
:1024E00000BF0846006840F4806008607047000044
:1024F000003C02400A4A126822F44072084B1A60FB
:102500001A46126842F004021A601A4612684FF422
:10251000803343EA00231A43014B1A6070470000DE
:10252000103C0240074A126822F44072054B1A60C0
:102530001A4612681A601A46126842F001021A60BE
:1025400001707047103C024010B50D49096821F434
:1025500040710B4C21602146096841F440712160B3
:102560002146096841F001012160026000BF00BFFF
:1025700000BFBFF36F8F00BF00BF00BF436010BD3F
:10258000103C0240084A126822F44072064B1A605E
:102590001A46126842F480721A601A46126842F0B3
:1025A00001021A6001807047103C0240084A12681C
:1025B00022F44072064B1A601A46126842F4007206
:1025C0001A601A46126842F001021A6001607047F0
:1025D000103C02402348006800F0100040B122483F
:1025E000C06940F010002049C86110201D490860F2
:1025F0001C48006800F0200040B11B48C06940F052
:1026000008001949C861202016490860154800686B
:1026100000F0400040B11448C06940F00400124985
:10262000C86140200F4908600E48006800F0800033
:1026300040B10D48C06940F002000B49C8618020DC
:10264000084908600748006800F0020040B10648E9
:10265000C06940F020000449C861022001490860B7
:10266000704700000C3C0240A426002070B50446D0
:10267000002500201449C86101F0AEFA054609E0C2
:10268000601C38B124B101F0A7FA401BA04201D967
:10269000032070BD0D48006800F480300028EFD1A1
:1026A0000A48006800F0010010B1012007490860E5
:1026B0000648006800F0F20018B1FFF78BFF012018
:1026C000E7E70020E5E70000A42600200C3C0240DC
:1026D000D0ED000A91ED001A30EEC11AD1ED000ADA
:1026E00040EE010AC1ED000A704710B585B00446FE
:1026F00040F60F012046FEF77BFE009040F6BA71CF
:102700002046FEF775FE019041F629012046FEF7AE
:102710006FFE029041F6F2712046FEF769FE0390CB
:102720000098002801DD009801E0009840420199DE
:10273000002901DD019901E001994942884201DA4D
:10274000009800E0019804900498002801DD0498A6
:1027500001E0049840420299002901DD029901E05C
:1027600002994942884201DA049800E002980490F4
:102770000498002801DD049801E004984042039980
:10278000002901DD039901E003994942884201DAF9
:10279000049800E003980490049805B010BD000070
:1027A0002A48C078012802D0002029490870294809
:1027B00080790F2811D12848B0F9000027490988ED
:1027C000234A127801FB120000B22549088008460E
:1027D000B0F900002349088037E01E4880791228AC
:1027E00011D12148B0F900001C490988184A127813
:1027F00001FB120000B21A4908800846B0F9000037
:102800001849088021E0134880791E2811D1174803
:10281000B0F90000114909880D4A127801FB120035
:1028200000B20F4908800846B0F900000D49088041
:102830000BE00C48B0F9001008480088044A1278F0
:1028400000FB121000B2064908807047B008002053
:10285000D2080020381E0020BE080020D00800202A
:10286000C8080020C6080020C0080020C4080020B6
:102870000246002321B1012908D0022912D10BE020
:102880000C48C068D04000F001030DE009488068A2
:10289000D04000F0010307E006480069D04000F096
:1028A000010301E0002300BF00BF0BB1012070470E
:1028B0000020FCE7AC000020014840787047000091
:1028C0002821002010B5024692F82030012B01D0BB
:1028D000022B06D11068406908431468606100202B
:1028E00010BD506A40F4802050620120F8E7F0B536
:1028F00004460D461E4694F8207020688368A86838
:1029000000B900E000BF012F01D0022F7CD103F0FD
:10291000806030B903F0006018B903F080500028DF
:1029200073D0C3F30161022905D9606A40F4000045
:1029300060620120F0BD012088403060A86860B965
:10294000B5F800C0E86840EA4C5C206800F5C0704B
:1029500000EB0110C0F800C00FE0D5E901C040EA6B
:10296000CC00D5F80CC040EA0C00D4F800C00CF53F
:10297000C07C0CEB011CCCF80000D5F810C020681E
:1029800000F5C07000EB0110C0F804C0287D0128DC
:102990000ED1206800F5C07000EB0110406840F4D3
:1029A000807C206800F5C07000EB0110C0F804C006
:1029B000D079000692F806C040EA0C4092F805C0B3
:1029C00040EA0C2C10794CEA000C206800F5C0702D
:1029D00000EB0110C0F80CC0D078000692F802C0DD
:1029E00040EA0C4092F801C040EA0C2092F800C086
:1029F00040EA0C00D4F800C00CF5C07C0CEB011CC4
:102A0000CCF80800206801E016E00FE000F5C07087
:102A100000EB0110006840F0010C206800F5C07068
:102A200000EB0110C0F800C0002083E7606A40F4AA
:102A30000010606201207DE7606A40F480206062DF
:102A4000012077E7F0B504460A46216894F8205043
:102A5000012D01D0022D7ED1424901F50071086897
:102A600040F001000860086820F47C5008600868A5
:102A7000566A40EA06200860107D00F01F0601201B
:102A800000FA06F3C8699843C861A1F50071D069DE
:102A9000C8B9D1F80C029843C1F80C02908880B2F2
:102AA000968940EA064601F51070576940F837608C
:102AB000108880B2168940EA064601F51070576901
:102AC00000EBC7004660D069012819D1D1F80C028B
:102AD0001843C1F80C02908880B2168840EA064676
:102AE00001F51070576940F83760908980B21689F7
:102AF00040EA064601F51070576900EBC7004660D2
:102B0000906928B9D1F804029843C1F8040204E09E
:102B1000D1F804021843C1F80402106928B9D1F8A9
:102B200014029843C1F8140204E0D1F814021843C7
:102B3000C1F81402106A012804D1D1F81C0218430C
:102B4000C1F81C02D1F8000220F00100C1F8000217
:102B50000020F0BDFFE7606A40F480206062012041
:102B6000F7E7000000640040704770B5044694F831
:102B70002050012D01D0022D7DD151B92068C068AF
:102B800000F0030080B9606A40F400106062012028
:102B900070BD2068006900F0030028B9606A40F445
:102BA000001060620120F3E7206800F5D87000EBA8
:102BB0000110006800F004009060906840B920683F
:102BC00000F5D87000EB01100068400D106007E0C0
:102BD000206800F5D87000EB01100068C008506054
:102BE000206800F5D87000EB0110006800F00200CA
:102BF000D060206800F5D87000EB0110406800F04C
:102C00000F001061206800F5D87000EB01104068DB
:102C100000F47F40000A9061206800F5D87000EB56
:102C200001104068000C5061206800F5D87000EB7E
:102C3000011080681870206800F5D87000EB011052
:102C4000806800F47F40000A5870206800F5D87052
:102C500000EB0110806800F47F00000C9870206881
:102C600000F5D87000EB01108068000ED870206865
:102C700000F5D87000E02FE000EB0110C06818717B
:102C8000206800F5D87000EB0110C06800F47F40A8
:102C9000000A5871206800F5D87000EB0110C06878
:102CA00000F47F00000C9871206800F5D87000EBEC
:102CB0000110C068000ED87131B92068C06840F0BA
:102CC00020002668F06005E02068006940F02000E0
:102CD0002668306100205BE7606A40F48020606213
:102CE000012055E72DE9F05F04460025206846697C
:102CF0002068D0F80490206887682068D0F80CA07D
:102D00002068D0F810B02068D0F8188006F00100D4
:102D1000002855D007F00100C0B10120216888606B
:102D200007F0020018B1204600F0A3FA0EE007F009
:102D3000040010B145F4006508E007F0080010B188
:102D400045F4805502E0204600F092FA07F48070C6
:102D5000C8B14FF480702168886007F4007018B122
:102D6000204600F088FA0EE007F4806010B145F4C8
:102D7000005508E007F4006010B145F4804502E01A
:102D8000204600F077FA07F48030C8B14FF4803065
:102D90002168886007F4003018B1204600F06DFA11
:102DA0000EE007F4802010B145F4004508E007F478
:102DB000002010B145F4803502E0204600F05CFAB6
:102DC00006F0080038B10AF0100020B145F4007593
:102DD00010202168C86006F0040040B10AF0080025
:102DE00028B108202168C860204600F00DFA06F0DE
:102DF000020038B12068C06800F0030010B120461E
:102E000000F003FA06F0400038B10BF0100020B1DA
:102E100045F4806510202168086106F0200040B16B
:102E20000BF0080028B1082021680861204600F056
:102E3000EDF906F0100038B12068006900F00300D9
:102E400010B1204600F0E3F906F4003040B109F07B
:102E5000100028B1102021684860204600F0D8F901
:102E600006F4803040B109F0080028B1082021683C
:102E70004860204600F002FA06F4004088B309F0EA
:102E8000040078B306F4807020B108F0010008B1A6
:102E900045F0010506F4007020B108F0020008B109
:102EA00045F0020506F4806020B108F0040008B186
:102EB00045F0040506F40060A0B108F0700088B188
:102EC00008F07000402817D006DC10280BD020280E
:102ED0000CD0302819D10CE0502810D0602814D123
:102EE00010E01DE019E045F008050FE045F0100581
:102EF0000CE045F0200509E045F0400506E045F00E
:102F0000800503E045F4807500E000BF00BF206845
:102F1000806920F070002168886104202168486081
:102F20002DB1606A284360622046FFF71DFEBDE8B0
:102F3000F09F70B504460CB9012070BD94F82000D4
:102F400010B9204600F0B0F82068006840F0010099
:102F50002168086000F040FE05460DE000F03CFEF0
:102F6000401B0A2808D9606A40F4003060620520DE
:102F700084F820000120E0E72068406800F00100AC
:102F80000028EBD02068006820F00200216808606B
:102F900000F022FE05460DE000F01EFE401B0A2850
:102FA00008D9606A40F400306062052084F820008F
:102FB0000120C2E72068406800F002000028EBD141
:102FC000207E012806D12068006840F0800021683A
:102FD000086005E02068006820F080002168086033
:102FE000607E012806D12068006840F0400021681A
:102FF000086005E02068006820F040002168086053
:10300000A07E012806D12068006840F020002168D9
:10301000086005E02068006820F020002168086052
:10302000E07E012806D12068006820F010002168A9
:10303000086005E02068006840F010002168086022
:10304000207F012806D12068006840F00800216830
:10305000086005E02068006820F00800216808602A
:10306000607F012806D12068006840F004002168D4
:10307000086005E02068006820F00400216808600E
:10308000D4E9020108432169084361690843616882
:10309000491E08432168C86100206062012084F84D
:1030A0002000002049E7000010B586B00446142136
:1030B00001A8FDF731F94E492068884241D14D48B9
:1030C0000068401C4B4908600846006801280FD181
:1030D00000BF002000904848006840F0007046495A
:1030E00008600846006800F00070009000BF00BF54
:1030F00000BF0020009040481038006840F00800F1
:103100003D49103908600846006800F0080000904A
:1031100000BF00BF03200190022002900020039016
:10312000032004900920059001A9344800F04CFCCC
:1031300000220521142001F08BF9142001F078F908
:1031400054E02F492068884250D100BF00200090F1
:103150002948006840F080602749086008460068F8
:1031600000F08060009000BF00BF22480068401C53
:10317000204908600846006801280FD100BF0020E0
:1031800000901D48006840F000701B490860084628
:10319000006800F00070009000BF00BF00BF00207A
:1031A000009015481038006840F0020012491039AC
:1031B00008600846006800F00200009000BF00BFF1
:1031C00060200190022002900020039003200490D0
:1031D0000920059001A90B4800F0F6FB002205210B
:1031E000402001F035F9402001F022F906B010BD71
:1031F000006400403400002040380240000C0240CF
:1032000000680040000402407047704770477047F4
:10321000704770B5044694F82000012822D102209E
:1032200084F820002068006820F001002168086010
:1032300000F0D2FC05460DE000F0CEFC401B0A2851
:1032400008D9606A40F400306062052084F82000EC
:10325000012070BD2068406800F001000028EBD11B
:103260006062F6E7606A40F4002060620120F0E7E7
:10327000704770477047704770477047704770B528
:103280000446A56D00F0A8FC064694F83500022817
:1032900008D08020606500BF002084F8340000BFA3
:1032A000012070BD2068006820F0160021680860C9
:1032B0002068406920F0800021684861206C08B9CE
:1032C000A06C28B12068006820F008002168086020
:1032D0002068006820F001002168086010E000F01C
:1032E0007BFC801B05280BD920206065032084F817
:1032F000350000BF002084F8340000BF0320D0E771
:103300002068006800F001000028E8D194F85C1003
:103310003F208840A860012084F8350000BF0020CD
:1033200084F8340000BF00BFBBE7014691F83500C8
:10333000022803D08020486501207047052081F8CD
:1033400035000868006820F001000A68106000205D
:10335000F3E70000F8B50446002000908C480068B0
:103360004FF41651B0FBF1F7A56D2E6894F85C1080
:1033700008208840304098B12068006800F00400C0
:1033800070B12068006820F004002168086094F89B
:103390005C1008208840A860606D40F00100606506
:1033A00094F85C1001208840304068B12068406982
:1033B00000F0800040B194F85C1001208840A860C3
:1033C000606D40F00200606594F85C100420884055
:1033D000304068B12068006800F0020040B194F805
:1033E0005C1004208840A860606D40F004006065B7
:1033F00094F85C1010208840304078B32068006852
:1034000000F0080050B394F85C1010208840A860C9
:103410002068006800F4802080B12068006800F413
:10342000002028B9206CC8B12046216C884715E0DF
:10343000A06C98B12046A16C88470FE02068006816
:1034400000F4807028B92068006820F00800216826
:103450000860206C10B12046216C884794F85C10FD
:10346000202088403040002865D02068006800F0A7
:10347000100000285FD094F85C1020208840A860DD
:1034800094F83500052828D12068006820F016003F
:10349000216808602068406920F080002168486148
:1034A000206C08B9A06C28B12068006820F00800E2
:1034B0002168086094F85C103F208840A8600120D3
:1034C00084F8350000BF002084F8340000BF206D70
:1034D00010B12046216D8847F8BD2068006800F4CF
:1034E000802080B12068006800F4002028B9606C5A
:1034F00010B12046616C88471DE0E06BD8B12046D2
:10350000E16B884717E02068006800F4807068B9B4
:103510002068006820F0100021680860012084F80D
:10352000350000BF002084F8340000BFE06B10B10C
:103530002046E16B8847606D38B3606D00F0010094
:10354000F0B1052084F835002068006820F0010003
:103550002168086000BF0098401C0090B84200D964
:1035600005E02068006800F001000028F3D100BFEA
:10357000012084F8350000BF002084F8340000BF2B
:10358000E06C10B12046E16C884700BFA4E7000062
:103590003C0B00202DE9F0410446002500F01CFB07
:1035A000074614B90120BDE8F081606A00B100BF90
:1035B000022084F8350000BF002084F8340000BFEA
:1035C0002068006820F00100216808600AE000F02F
:1035D00003FBC01B052805D920206065032084F863
:1035E0003500E0E72068006800F001000028EED117
:1035F0002068056821480540D4E901010843E168D5
:1036000008432169084361690843A1690843E169E6
:103610000843216A08430543606A042803D1D4E9BA
:103620000B0108430543206805602068456925F0C3
:103630000705606A0543606A04280DD1A06A054346
:10364000E06A48B12046FEF79FFB28B14020606544
:10365000012084F83500A6E7206845612046FEF782
:1036600079FB064694F85C103F208840B06000204B
:103670006065012084F83500002094E73F8010F059
:103680002DE9F04104460D4616461F464FF000084E
:1036900000BF94F83400012802D10220BDE8F08177
:1036A000012084F8340000BF94F83500012811D1BE
:1036B000022084F83500002060653B4632462946EA
:1036C0002046FEF7B6FB2068006840F00100216844
:1036D000086006E000BF002084F8340000BF4FF00F
:1036E00002084046DAE72DE9F04704460D46164643
:1036F0001F464FF00008D4F8589000BF94F83400EB
:10370000012802D10220BDE8F087012084F83400AE
:1037100000BF94F83500012825D1022084F8350037
:10372000002060653B46324629462046FEF781FB75
:1037300094F85C103F208840C9F8080020680068B1
:1037400040F0160021680860206C28B120680068ED
:1037500040F00800216808602068006840F001001F
:103760002168086006E000BF002084F8340000BF34
:103770004FF002084046C6E72DE9F04104460E46E8
:103780000127002500BF2548007E012802D1022024
:10379000BDE8F08101202149087600BF4CF250308D
:1037A000FEF764FF0746002F31D1401E30602068CD
:1037B00001280FD1207C6168FEF79CFE4CF250304E
:1037C000FEF754FF07461648006820F0040014492D
:1037D00008601AE0A56812E0217C2846FEF720FE6A
:1037E0004CF25030FEF742FF07460D48006820F0CB
:1037F000FA000B4908600FB1356005E06D1CD4E993
:1038000002100844A842E7D800BFFEF737FE00BF09
:1038100000200249087600BF3846B9E7A4260020F8
:10382000103C02400348006840F000400149086035
:1038300000207047103C02402DE9F04106460F463B
:1038400014461D464FF0010800BF1F48007E0128A6
:1038500002D10220BDE8F08101201B49087600BF9B
:103860004CF25030FEF702FF8046B8F1000F23D132
:1038700026B9E1B23846FEF755FE12E0012E04D11A
:10388000A1B23846FEF77EFE0BE0022E04D121469F
:103890003846FEF78BFE04E022462B463846FEF7FC
:1038A00053FE4CF25030FEF7E1FE804607480068B8
:1038B00020F001000549086000BF00200249087699
:1038C00000BF4046C6E70000A4260020103C02408E
:1038D00000200949096801F0004159B10749064A29
:1038E0000C3A1160064911600349096801F0004172
:1038F00001B1012070470000103C024023016745E0
:10390000AB89EFCD10B50446102C11D11F480078BB
:1039100040F001001D4908701D48007840F001008A
:103920001B4908701B48007870B30BF08FF92BE02F
:10393000202C0BD11848007840F00100164908707F
:103940001448007800B30BF081F91DE0082C06D173
:103950001248007840F001001049087014E0012C72
:1039600012D10DF0D5FD01280ED00D490D4800688B
:103970000CF020FF0A48006830B120070A490860AF
:10398000BFF34F8FBFF36F8F10BD0000720A00208E
:10399000730A0020750A0020710A0020740A0020B2
:1039A000E80A00204C0A002004ED00E010B50446AF
:1039B00004480068204020B1024804602046FFF718
:1039C000A1FF10BD143C0140F8B502460B4600258E
:1039D000002400200021D6E0012606FA01F51E6829
:1039E00006EA0504AC4274D11E7906F00306012EE6
:1039F00004D01E7906F00306022E13D190684F0002
:103A00000326BE40B0434F00DE68BE4030439060A6
:103A1000506801268E40B0431E79C6F300168E40D2
:103A2000304350601E7906F00306032E09D0D0689B
:103A30004F000326BE40B0434F009E68BE40304357
:103A4000D0601E7906F00306022E13D1CF0802F1D2
:103A5000200656F827004E07F70E0F26BE40B0434B
:103A60004F07FF0E1E69BE403043CF0802F120060B
:103A700046F8270010684F000326BE40B0431E7969
:103A800006F003064F00BE40304310605E6806F447
:103A90004036002E76D000BF002600963C4E366899
:103AA00046F480463A4F3E603E46366806F480460D
:103AB000009600BF00BF374E8F0856F827008E07CC
:103AC000370F0F26BE40B043334EB24202D100261C
:103AD00024E057E0314EB24201D101261EE0304EC3
:103AE000B24201D1022619E02E4EB24201D1032684
:103AF00014E02D4EB24201D104260FE02B4EB2420B
:103B000001D105260AE02A4EB24201D1062605E07F
:103B1000284EB24201D1072600E008268F073F0F4A
:103B2000BE4030431B4E8F0846F82700224E3068B7
:103B3000A0435E6806F4801606B120431E4E306036
:103B4000361D3068A0435E6806F4001606B12043B7
:103B5000194E361D3060184E361F3068A0435E681F
:103B600006F4003606B12043134E361F3060361F70
:103B70003068A0435E6806F4803606B120430E4EDE
:103B8000083E3060491C1029FFF426AFF8BD000044
:103B9000443802400838014000000240000402405E
:103BA00000080240000C02400010024000140240D5
:103BB00000180240001C0240083C01400246136904
:103BC0000B400BB1012000E0002070470AB1816179
:103BD00001E00B04836170470148006870470000F2
:103BE000540B002070B504460CB9012070BD94F848
:103BF0003D0028B9002084F83C00204600F006FB78
:103C0000242084F83D002068006820F0010021682D
:103C100008602068006840F400402168086020685F
:103C2000006820F400402168086000F06FFD054640
:103C30005C496068884206D85B48854201D2012011
:103C400007E0002005E05948854201D2012000E04C
:103C50000020012800D1C9E75548B5FBF0F62068DF
:103C6000406820F03F003043216848604D4960685B
:103C7000884201D8701C07E04FF4967070434FF4EF
:103C80007A71B0FBF1F0401C2168096A21F03F0114
:103C900008432168086243496068884214D8681E56
:103CA00061684900B0FBF1F0401CC0F30B00042830
:103CB00001D204203DE0681E61684900B0FBF1F0CC
:103CC000401CC0F30B0034E0A06838B9681E61687E
:103CD00001EB4101B0FBF1F0401C0AE0681E616895
:103CE00001EBC10202EB0111B0FBF1F0401C40F40A
:103CF0008040C0F30B0008B901201AE0A06848B961
:103D0000681E616801EB4101B0FBF1F0401CC0F39B
:103D10000B000CE0681E616801EBC10202EB0111AF
:103D2000B0FBF1F0401CC0F30B0040F4804040F4C5
:103D300000402168C9694CF6FF729143084321682D
:103D4000C861D4E9070108432168096821F0C0016E
:103D5000084321680860D4E9031008432168896892
:103D600048F2FF329143084321688860D4E9050195
:103D700008432168C96821F0FF0108432168C86031
:103D80002068006840F0010021680860002020647D
:103D9000202084F83D000020206384F83E0000BF0E
:103DA00024E70000A086010080841E0000093D0079
:103DB00040420F002DE9FC5F04460F4690469946AD
:103DC000DDE90CAB0E9EFFF707FF054694F83D00BA
:103DD000202870D119230122B0492046009502F015
:103DE00027FD10B10220BDE8FC9F00BF94F83C0005
:103DF000012801D10220F6E7012084F83C0000BF31
:103E00002068006800F0010028B92068006840F0D0
:103E10000100216808602068006820F400602168C3
:103E20000860222084F83D00402084F83E000020F5
:103E30002064C4F824A0A4F82AB0608D2085984896
:103E4000E0624B46424639462046CDE9006502F025
:103E5000A1FB08B10120C6E7208D88B900BF002072
:103E6000019020684069019020688069019000BF3E
:103E700000BF2068006840F400702168086040E0DE
:103E8000208D012818D12068006820F48060216806
:103E9000086000BF00200190206840690190206800
:103EA0008069019000BF00BF2068006840F4007086
:103EB0002168086025E0EFE0208D022816D12068F7
:103EC000006820F48060216808602068006840F481
:103ED00000602168086000BF0020019020684069F0
:103EE000019020688069019000BF0AE000BF0020B7
:103EF000019020684069019020688069019000BFAE
:103F000000BFBAE0208D03287ED8208D012815D16E
:103F10002A463146204602F030FD08B1012062E712
:103F200020680069616A0870606A401C6062208DC8
:103F3000401E2085608D401E60859EE0208D0228F9
:103F40002AD13346002257492046009502F070FCE2
:103F500008B1012047E72068006840F4007021683C
:103F6000086020680069616A0870606A401C6062CD
:103F7000208D401E2085608D401E60852068006970
:103F8000616A0870606A401C6062208D401E208556
:103F9000608D401E608570E0334600224149204616
:103FA000009502F045FC08B101201CE7206800687C
:103FB00020F480602168086020680069616A0870E8
:103FC000606A401C6062208D401E2085608D401E0E
:103FD00060853346002233492046009502F028FCD4
:103FE00008B10120FFE62068006840F400702168F5
:103FF000086020680069616A0870606A401C60623D
:10400000208D401E208500E010E0608D401E608500
:1040100020680069616A0870606A401C6062208DD7
:10402000401E2085608D401E608526E02A46314670
:10403000204602F0A2FC08B10120D4E62068006905
:10404000616A0870606A401C6062208D401E208595
:10405000608D401E608520684069C0F3800060B1BB
:1040600020680069616A0870606A401C6062208D87
:10407000401E2085608D401E6085208D00287FF4C5
:1040800041AF202084F83D00002084F83E0000BFAE
:1040900084F83C0000BFA6E60220A4E6020010005F
:1040A0000000FFFF040001002DE9FC5F04460F46FD
:1040B00090469946DDE90CAB0E9EFFF78DFD054657
:1040C00094F83D0020287DD1192301224D49204636
:1040D000009502F0ADFB10B10220BDE8FC9F00BFCF
:1040E00094F83C00012801D10220F6E7012084F871
:1040F0003C0000BF2068006800F0010028B920687B
:10410000006840F00100216808602068006820F421
:10411000006021680860212084F83D00402084F878
:104120003E0000202064C4F824A0A4F82AB0608DCA
:1041300020853548E0624B46424639462046CDE967
:10414000006502F0D7FA08B10120C6E731E02A463F
:104150003146204602F051FC50B1206C042805D1B4
:104160002068006840F40070216808600120B4E70E
:10417000606A007821680861606A401C6062208D76
:10418000401E2085608D401E608520684069C0F318
:10419000800070B1208D60B1606A0078216808618C
:1041A000606A401C6062208D401E2085608D401E2C
:1041B0006085208D0028CAD12A463146204602F06B
:1041C00009FB00E01CE050B1206C042805D12068F8
:1041D000006840F400702168086001207DE72068D5
:1041E000006840F4007021680860202084F83D00D9
:1041F000002084F83E0000BF84F83C0000BF6CE75C
:1042000002206AE7020010000000FFFF10B586B030
:104210000446142101A8FCF77FF82A492068884247
:104220004DD100BF002000902748006840F00400F6
:10423000254908600846006800F00400009000BFAF
:1042400000BF00BF002000900846006840F0010059
:1042500008600846006800F00100009000BF00BF41
:104260004815019012200290012003900320049031
:104270000420059001A91548FFF7A6FB4FF48070B4
:10428000019012200290012003900320049004204A
:10429000059001A90E48FFF797FB00BF0020009092
:1042A00009481030006840F40000074910310860E8
:1042B0000846006800F40000009000BF00BF06B090
:1042C00010BD0000005C0040303802400008024091
:1042D0000000024003480068034909780844014986
:1042E00008607047540B00205C0B002010B50D488F
:1042F000006840F400700B4908600846006840F40C
:10430000806008600846006840F480700860032000
:1043100000F0DCF8002000F007F800F05FF8002063
:1043200010BD0000003C02402DE9F04188B0044679
:104330000027B84600BF002001902348006840F0E5
:104340001000214908600846006800F01000019044
:1043500000BF00BF02A903A800F0B0F9069F1FB973
:1043600000F0D4F9054602E000F0D0F94500174806
:10437000B5FBF0F0A0F1010815481649086040F2BD
:10438000E7311448C160C0F80480002101618160F8
:10439000816100F03DFF064696B90E4801F056F8DF
:1043A00006466EB9362000F043F8102C07D20022E2
:1043B0002146362000F04CF80748046000E0012652
:1043C000304608B0BDE8F0814038024040420F005E
:1043D00000100040F8170020580B002008B500BF5F
:1043E000002000901148006840F480400F490860A8
:1043F0000846006800F48040009000BF00BF00BF86
:1044000000200090081F006840F08050091F0860DD
:104410000846006800F08050009000BF00BF0022F6
:104420000F21901E00F014F808BD0000443802402F
:1044300001460846002809DB00F01F0301229A40CC
:1044400043099B0003F1E023C3F8002100BF70473C
:104450002DE9F05F80460D461646002709F03EF92B
:10446000074639462A46334601F00700C0F1070ADD
:10447000BAF1040F02D94FF0040A01E0C0F1070AB3
:10448000D14600F1040ABAF1070F02D24FF0000A38
:1044900001E0A0F1030AD4464FF0010A0AFA09FA32
:1044A000AAF1010A0AEA020A0AFA0CFA4FF0010B11
:1044B0000BFA0CFBABF1010B0BEA030B4AEA0B0402
:1044C0002146404609F012F9BDE8F09F00BF00F018
:1044D0000702064B19684FF6FF031940044B0B43C4
:1044E00043EA0221014B196000BF70470CED00E068
:1044F0000000FA0500BF00BF00BF00BF00BFBFF350
:104500004F8F00BF00BF00BF0948006800F4E060A3
:1045100008490843001D0649086000BF00BF00BFEE
:10452000BFF34F8F00BF00BF00BF00BF00BFFDE75C
:104530000CED00E00000FA0570B504460D460CB91C
:10454000012070BD5848006800F00700A84209D259
:1045500055490D700846006800F00700A84201D0D8
:104560000120EEE7207800F0020002281DD120781B
:1045700000F00400042805D14C48006840F4E050E5
:104580004A490860207800F00800082805D147480B
:10459000006840F46040454908604448006820F0E5
:1045A000F000A168084341490860207800F001004C
:1045B000A8B36068012807D13C4808380068C0F3F8
:1045C0004040B8B90120BCE76068022802D06068AA
:1045D000032807D1354808380068C0F3406048B95F
:1045E0000120AEE7314808380068C0F3400008B940
:1045F0000120A6E72D48006820F003006168084309
:104600002A490860FFF7E8FA064609E0FFF7E4FAEE
:10461000801B41F28831884202D9032091E707E0EC
:104620002248006800F00C006168B0EB810FEDD10A
:104630001D48006800F00700A84209D91A490D700A
:104640000846006800F00700A84201D0012078E782
:10465000207800F00400042807D11448006820F4F2
:10466000E050E168084311490860207800F0080034
:10467000082808D10D48006820F46040216940EA0C
:10468000C1000A49086000F061F808490968C1F3EF
:104690000311074A515CC840064908600648006893
:1046A000FFF742FE00204CE7003C02400838024081
:1046B000581C01083C0B0020580B00200F22026000
:1046C0000D4A126802F0030242600B4A126802F0BF
:1046D000F0028260084A126802F4E052C260064AA0
:1046E000126802F46042D2080261044A126802F0C1
:1046F00007020A607047000008380240003C024090
:1047000001480068704700003C0B002000B5FFF72F
:10471000F7FF04490968C1F38221034A515CC8408C
:1047200000BD000008380240681C010800B5FFF712
:10473000E7FF04490968C1F34231034A515CC840AC
:1047400000BD000008380240681C01082DE9F04750
:10475000002400250026A1462548006800F00C0032
:1047600020B1042805D008283AD105E0DFF884906C
:1047700039E0DFF8849036E01D48001F006800F043
:104780003F041B48001F006800F4800078B11A48FD
:104790001749091F0968C1F38811A0FB0170014680
:1047A000224600233846FBF76DFD05460EE0114812
:1047B0000F49091F0968C1F38811A0FB0170014668
:1047C000224600233846FBF75DFD05460848001FDA
:1047D0000068C0F30140401C4600B5FBF6F902E05A
:1047E000DFF8109000BF00BF4846BDE8F08700002A
:1047F000083802400024F400001BB700F8B5044656
:104800000CB90120F8BD207800F00100002874D018
:10481000F948006800F00C0004280DD0F648006844
:1048200000F00C00082813D1F348001F006800F4C2
:104830008000B0F5800F0BD1EF4808380068C0F356
:104840004040002859D06068002856D10120D9E79F
:1048500000BF6068B0F5803F08D1E74808380068BD
:1048600040F48030E449083908601EE06068B0F523
:10487000A02F0DD1E0480838006840F48020DE49C0
:10488000083908600846006840F4803008600CE091
:10489000D9480838006820F48030D74908390860C2
:1048A0000846006820F48020086000BF606890B16E
:1048B000FFF792F9054606E0FFF78EF9401B6428E2
:1048C00001D903209EE7CC4808380068C0F3404077
:1048D0000028F1D011E0FFF77FF9054606E0FFF769
:1048E0007BF9401B642801D903208BE7C2480838B4
:1048F0000068C0F340400028F1D1207800F00200A9
:1049000002285FD1BC48006800F00C0058B1BA48DA
:10491000006800F00C0008281CD1B748001F006890
:1049200000F48000B0B9B44808380068C0F3400013
:1049300020B1E068012801D0012063E7AE480838C3
:10494000006820F0F800216940EAC100AA4908394E
:10495000086037E0E06800B30120A8490860FFF76D
:104960003BF9054606E0FFF737F9401B022801D95D
:10497000032047E7A04808380068C0F3400000283B
:10498000F1D09D480838006820F0F800216940EA1D
:10499000C10099490839086014E00020974908606F
:1049A000FFF71AF9054606E0FFF716F9401B022843
:1049B00001D9032026E7904808380068C0F340007A
:1049C0000028F1D1207800F0080008282CD1606977
:1049D000A8B101208A490860FFF7FEF8054606E005
:1049E000FFF7FAF8401B022801D903200AE78248A2
:1049F0006C300068C0F340000028F1D014E00020C3
:104A00007F490860FFF7E8F8054606E0FFF7E4F89D
:104A1000401B022801D90320F4E677486C30006877
:104A2000C0F340000028F1D1207800F004000428F1
:104A300070D1002770483830006800F0805090B97D
:104A400000BF002000906C483830006840F0805073
:104A50006949383108600846006800F080500090CD
:104A600000BF00BF01276748006800F48070B0B93C
:104A70006448006840F4807062490860FFF7ACF851
:104A8000054606E0FFF7A8F8401B022801D90320DD
:104A9000B8E65C48006800F480700028F2D000BFDF
:104AA000A068012808D154486830006840F001002F
:104AB0005149683108601DE0A06805280DD14E48B5
:104AC0006830006840F004004B49683108600846CF
:104AD000006840F0010008600CE04748683000685A
:104AE00020F001004449683108600846006820F061
:104AF0000400086000BFA068A8B1FFF76DF8054684
:104B000009E0FFF769F8401B41F28831884202D979
:104B1000032077E626E0384868300068C0F340009C
:104B20000028EED013E0FFF757F8054608E0FFF73E
:104B300053F8401B41F28831884201D9032061E6D5
:104B40002D4868300068C0F340000028EFD1012FE5
:104B500007D129483830006820F080502649383184
:104B6000086000BFA069002845D02348006800F015
:104B70000C0008285DD0A069022845D100201F49FB
:104B80000866FFF729F8054606E0FFF725F8401B01
:104B9000022801D9032035E6174808380068C0F319
:104BA00040600028F1D1D4E907010843616A40EA76
:104BB00081110122A06AC2EB500041EA00412C2081
:104BC000005D41EA00600C49091F086001200B49A3
:104BD0000866FFF701F8054606E0FEF7FDFF401BFB
:104BE000022801D903200DE6034808380068C0F305
:104BF00040600028F1D049E00838024000004742F8
:104C0000800E474200700040002021490866FEF7F0
:104C1000E3FF054606E0FEF7DFFF401B022801D94F
:104C20000320EFE51B480068C0F340600028F2D184
:104C30002CE0A069012800D1E4E51648001D0668B3
:104C4000A069012820D006F48001E06981421BD1CF
:104C500006F03F01206A814216D147F6C07030400D
:104C6000616AB0EB811F0FD106F440310122A06AC6
:104C7000C2EB5000B1EB004F06D106F070612C2062
:104C8000005DB1EB006F01D00120BBE50020B9E56C
:104C9000000047420038024010B504460CB901201C
:104CA00010BD606A38B96068B0F5827F00D105E058
:104CB0000021E16102E00021216161610021A16226
:104CC00094F8510028B9002084F85000204600F0E4
:104CD00047F8022084F851002068006820F0400066
:104CE00021680860A08800F48270218901F40441E1
:104CF0000843A18901F400610843217C01F002010D
:104D00000843217D01F001010843218B01F400716A
:104D10000843217F01F0380108432021095D01F09B
:104D200080010843218D01F4005108432168086087
:104D30000421A06901EA104094F8241001F0100148
:104D40000843216848602068C06920F40060216839
:104D5000C86100206065012084F8510000209FE7B1
:104D600010B586B00446142101A8FBF7D5FA4B49CB
:104D7000206888427ED100BF00200090484800682B
:104D800040F48050464908600846006800F48050AE
:104D9000009000BF00BF00BF0020009040481438C2
:104DA000006840F002003E49143908600846006877
:104DB00000F00200009000BF00BF00BF0020009084
:104DC0000846006840F0010008600846006800F0EE
:104DD0000100009000BF00BF182001900220029047
:104DE00001200390032004900520059001A92D487F
:104DF000FEF7EAFD8020019002200290012003903E
:104E0000032004900520059001A92748FEF7DCFD4A
:104E10002648274908604FF0C060486000212448B8
:104E20008160C1604FF48061016100214161816155
:104E3000C1614FF44031016200214162FEF7AAFBDB
:104E400008B1FDF748FA00BF1948E064846300BF69
:104E500016481830174908604FF0C060486040217C
:104E6000144881600021C1604FF48061016100211C
:104E7000416100E010E08161C1614FF400310162E5
:104E800000214162FEF786FB08B1FDF724FA00BF5E
:104E90000848A064846300BF06B010BD0030014024
:104EA00044380240000402400000024040640240D6
:104EB00084130020E41300202DE9FF5F0446884698
:104EC00091461D460E9E012002900020019000BFD9
:104ED00094F85000012803D1022004B0BDE8F09FEF
:104EE000012084F8500000BFFEF776FE074694F8D4
:104EF00051B060680390AA46BBF1010F0BD0039834
:104F0000B0F5827F04D1A06810B9BBF1040F02D0C4
:104F100002200190DBE0B8F1000F03D0B9F1000FDF
:104F200000D015B901200190D1E094F85100042877
:104F300002D0052084F8510000206065C4F8389044
:104F4000E587A587C4F83080E586A586206460647F
:104F50002068006800F04000402805D02068006804
:104F600040F0400021680860E068B0F5006F4AD169
:104F7000606810B1BAF1010F09D1206B0088216877
:104F8000C860206B801C2063E08E401EE08633E00A
:104F90002068806800F00200022810D1E08E70B115
:104FA000029801280BD1206B00882168C860206B13
:104FB000801C2063E08E401EE08600200290206866
:104FC000806800F0010068B1E08F58B12068C068C7
:104FD000A16B0880A06B801CA063E08F401EE0875F
:104FE00001200290FEF7F8FDC01BB04204D3701CF4
:104FF00010B1032001906AE0E08E0028C8D1E08F54
:105000000028C5D14AE0606810B1BAF1010F09D19A
:10501000206B007821680873206B401C2063E08EB1
:10502000401EE08634E02068806800F0020002281C
:1050300010D1E08E70B1029801280BD1206B00785E
:1050400021680873206B401C2063E08E401EE086C0
:10505000002002902068806800F0010068B1E08FB5
:1050600058B12068C068A16B0870A06B401CA06399
:10507000E08F401EE08701200290FEF7ADFDC01BCF
:10508000B04201D3701C00B916B9032001901EE094
:10509000E08E0028C7D1E08F0028C4D13A463146BF
:1050A000204606F041FF20B10120019020206065DC
:1050B0000DE0A06850B900BF002000902068C068D3
:1050C000009020688068009000BF00BF00BF0120F2
:1050D00084F8510000BF002084F8500000BF019800
:1050E000FBE67047704710B50346002200BF93F8F7
:1050F0003C00012801D1022010BD012083F83C00B2
:1051000000BF22F0FF00CC6840EA040222F44070A5
:105110008C6840EA040222F480604C6840EA040291
:1051200022F400600C6840EA040222F480500C690A
:1051300040EA040222F400504C6940EA040222F4DE
:105140008040CC6940EA04021868426400BF002035
:1051500083F83C0000BF00BFCEE7000030B5024638
:105160000B4600BF92F83C00012801D1022030BD5F
:10517000012082F83C0000BF022082F83D00106848
:1051800044681068816824F070041868044310684B
:105190004460184D1068A8421BD01068B0F1804FD1
:1051A00017D0154D1068A84213D0144D1068A842AE
:1051B0000FD0134D1068A8420BD0124D1068A842B2
:1051C00007D0114D1068A84203D0104D1068A842B6
:1051D00005D121F0800158680143106881600120E9
:1051E00082F83D0000BF002082F83C0000BF00BFF5
:1051F000BDE700000000014000040040000800403E
:10520000000C004000040140004001400018004034
:1052100010B504460CB9012010BD94F83D0028B922
:10522000002084F83C00204600F026F8022084F894
:105230003D00211D206807F0BDF8012084F84600DC
:1052400000BF84F83E0001213F2001554020015558
:105250004120015500BF00BF012084F842004320D7
:105260000155442001554520015500BF012084F817
:105270003D000020D0E7000038B5044644492068CE
:1052800088420FD100BF002000904248006840F0E3
:105290000100404908600846006800F001000090E5
:1052A00000BF74E03C492068884211D100BF002053
:1052B00000903848001F006840F004003549091F7D
:1052C00008600846006800F00400009000BF5EE03F
:1052D00032492068884211D100BF002000902D483B
:1052E000001F006840F008002A49091F08600846AE
:1052F000006800F00800009000BF48E028492068DE
:10530000884230D100BF002000902248006840F061
:105310000200204908600846006800F00200009082
:1053200000BF00BF1F48204908604FF06060486020
:1053300040211D4881600021C1604FF480610161FE
:1053400049004161890081610021C16101624162BE
:10535000FEF720F908B1FCF7BEFF00BF1249E16279
:105360000846846313E01149206888420FD100BFCA
:10537000002000900748006840F4003005490860AC
:105380000846006800F40030009000BF00BF38BD40
:10539000000001404438024000080040000C00407A
:1053A0000004014070640240AC150020004401403C
:1053B000014691F83D00012801D0012070470220EC
:1053C00081F83D001A4B086898421BD00868B0F17C
:1053D000804F17D0174B0868984213D0164B0868B7
:1053E00098420FD0154B086898420BD0144B0868B0
:1053F000984207D0134B0868984203D0124B0868B4
:1054000098420CD10868806800F00702062A0CD088
:105410000868006840F001000B68186005E0086843
:10542000006840F001000B6818600020C6E700002B
:10543000000001400004004000080040000C004053
:10544000000401400040014000180040014691F86E
:105450003D00012801D001207047022081F83D0065
:105460000868C06840F001000B68D8601A4B0868F3
:1054700098421BD00868B0F1804F17D0174B0868CE
:10548000984213D0164B086898420FD0154B086805
:1054900098420BD0144B0868984207D0134B086809
:1054A000984203D0124B086898420CD10868806873
:1054B00000F00702062A0CD00868006840F00100DE
:1054C0000B68186005E00868006840F001000B6890
:1054D00018600020C0E70000000001400004004008
:1054E00000080040000C0040000401400040014062
:1054F000001800402DE9F04104460D46002700BF8A
:1055000094F83C00012802D10220BDE8F08101207E
:1055100084F83C0000BF022084F83D0020688668C3
:1055200026F0770626F47F46206886602868502893
:1055300033D00CDC202850D004DC00284BD01028BD
:1055400051D149E0302849D040284CD139E0602879
:105550002DD0702807D0B0F5805F03D0B0F5005F84
:1055600041D10DE041E0D5E902136A68206807F0F7
:1055700021F82068866846F077062068866034E067
:10558000D5E902136A68206807F014F8206880687B
:1055900040F480402168886027E0EA6869682068F4
:1055A00007F0F8F85021206807F00FF81DE0EA68CE
:1055B0006968206807F001F96021206807F005F8A4
:1055C00013E0EA686968206807F0E4F84021206881
:1055D00006F0FBFF09E000BF00BF00BF296820689C
:1055E00006F0F3FF01E0012700BF00BF012084F8AF
:1055F0003D0000BF002084F83C0000BF384684E72F
:105600007047704710B5044620680069C0F3400039
:10561000D8B12068C068C0F34000B0B16FF002009C
:1056200021680861012020772068806900F003006C
:1056300018B12046FFF7E5FF05E0204600F094F999
:10564000204600F048FA0020207720680069C0F367
:105650008000D8B12068C068C0F38000B0B16FF09E
:10566000040021680861022020772068806900F426
:10567000407018B12046FFF7C4FF05E0204600F057
:1056800073F9204600F027FA00202077206800698F
:10569000C0F3C000D8B12068C068C0F3C000B0B18A
:1056A0006FF0080021680861042020772068C06935
:1056B00000F0030018B12046FFF7A3FF05E02046E5
:1056C00000F052F9204600F006FA0020207720680A
:1056D0000069C0F30010D8B12068C068C0F30010A2
:1056E000B0B16FF0100021680861082020772068B1
:1056F000C06900F4407018B12046FFF782FF05E052
:10570000204600F031F9204600F0E5F9002020772E
:105710002068006900F0010058B12068C06800F0FE
:10572000010030B16FF0010021680861204600F0EF
:105730007FFB20680069C0F3C01058B12068C068C2
:10574000C0F3C01030B16FF08000216808612046BE
:10575000FFF7C7FC20680069C0F3801058B12068CB
:10576000C068C0F3801030B16FF04000216808615C
:10577000204600F069FB20680069C0F3401058B172
:105780002068C068C0F3401030B16FF0200021687D
:1057900008612046FFF7A6FC10BD000010B586B0DA
:1057A0000446142101A8FAF7B7FD6249206888422F
:1057B0001ED100BF002000905F48006840F010003C
:1057C0005D4908600846006800F01000009000BFC6
:1057D00000BF4FF42050019002200290002003905F
:1057E00004900120059001A95448FEF7EDF89FE0D0
:1057F0005349206888421ED100BF002000904E48C7
:10580000006840F008004C4908600846006800F055
:105810000800009000BF00BF4FF4804001900220BC
:1058200002900020039004900220059001A94548B1
:10583000FEF7CAF87CE04449206888422DD100BFB9
:10584000002000903C48006840F080003A49086021
:105850000846006800F08000009000BF00BF4FF4D1
:10586000E050019002200290012003900220049059
:10587000059001A93548FEF7A7F83548FFF798FDD0
:105880000021334800F02AF90421314800F026F9BC
:1058900008212F4800F022F94AE02E49206888426A
:1058A0001DD100BF002000902348006840F48070A4
:1058B000214908600846006800F48070009000BF2D
:1058C00000BF8020019002200290002003900490ED
:1058D0000320059001A92048FEF776F828E01F492B
:1058E0002068884224D100BF002000901248006840
:1058F00040F02000104908600846006800F02000D1
:10590000009000BF00BF40200190022002900120C3
:105910000390022004900320059001A91048FEF78F
:1059200053F81048FFF744FD00210E4800F0D6F868
:1059300006B010BD000001403038024000100240A7
:1059400000080040000C0240000C0040001C024017
:10595000D414002000040140002002400044014013
:10596000001402406415002070472DE9F041044600
:105970000D461646002700BF94F83C00012802D1CE
:105980000220BDE8F081012084F83C0000BF36B160
:10599000042E1BD0082E31D00C2E5ED145E02946B6
:1059A000206806F01BFE2068806940F0080021682E
:1059B00088612068806920F004002168886120687F
:1059C0008069296908432168886148E02946206880
:1059D00006F03CFE2068806940F400602168886120
:1059E0002068806920F4806021688861206880696F
:1059F000296940EA01202168886130E02946206851
:105A000006F062FE2068C06940F008002168C861A5
:105A10002068C06920F004002168C8612068C0695E
:105A2000296908432168C86119E02946206806F001
:105A300087FE2068C06940F400602168C861206862
:105A4000C06920F480602168C8612068C069296944
:105A500040EA01202168C86101E0012700BF00BFC2
:105A600000BF002084F83C0000BF384689E710B52D
:105A700004460CB9012010BD94F83D0028B900205F
:105A800084F83C00204600F025F8022084F83D0010
:105A9000211D206806F08EFC012084F8460000BF1E
:105AA00084F83E0001213F2001554020015541204E
:105AB000015500BF00BF012084F84200432001557A
:105AC000442001554520015500BF012084F83D00C8
:105AD0000020D0E7704770477047000070B504465B
