:020000040800F2
:100000005867002085020008E56100087148000873
:10001000196100087D120008DD840008000000005E
:10002000000000000000000000000000C501000802
:10003000FD1E00080000000021020008617A00088F
:100040009F0200089F0200089F0200089F0200080C
:100050009F0200089F0200089F0200089F020008FC
:100060009F0200089F0200089F0200089F020008EC
:10007000CD1D00089F020008D91D0008E51D0008DD
:100080009F0200089F0200089F0200089F020008CC
:10009000451300089F0200089F0200089F02000805
:1000A0009F0200089F0200089F0200089F020008AC
:1000B0002D7B00089F020008397B00089F02000882
:1000C0009F0200089F0200089F0200089F0200088C
:1000D0009F020008FD8000089F02000815810008AB
:1000E0009F0200089F0200089F0200089F0200086C
:1000F0009F0200089F0200089F0200089F0200085C
:100100009F0200089F0200089F0200089F0200084B
:100110009F0200089F020008457B00089F0200081C
:100120009F0200089F020008F11D00089F020008BE
:100130009F0200089F0200089F0200089F0200081B
:10014000D11300089F0200089F0200089F020008C8
:100150009F0200089F0200089F0200089F020008FB
:100160009F0200089F0200089F0200089F020008EB
:100170009F0200089F0200089F0200080000000084
:100180009F0200089F020008257E00089F020008C9
:100190009F0200089F0200089F0200089F020008BB
:1001A00000000000000000009F020008DFF810D0EF
:1001B00000F020FC0048004783AE0008AFF3008049
:1001C000586700202C4B19680868B0E8F04F80F39E
:1001D0000988BFF36F8F4FF0000080F311887047DC
:1001E0000000000008480068006880F308884FF0AD
:1001F000000080F3148862B661B6BFF34F8FBFF37F
:100200006F8F00DF00BF00BF08ED00E0DFF80C00DB
:10021000016841F470010160704700BF88ED00E0A3
:10022000EFF30980BFF36F8F134B1A681EF0100FA6
:1002300008BF20ED108A20E9F04F106009B44FF09C
:10024000500080F31188BFF34F8FBFF36F8F0BF017
:1002500021FE4FF0000080F3118809BC196808687E
:10026000B0E8F04F1EF0100F08BFB0EC108A80F31A
:100270000988BFF36F8F704758070020EFF30580A0
:10028000704700000648804706480047FEE7FEE743
:10029000FEE7FEE7FEE7FEE7FEE7FEE7FEE7FEE736
:1002A000117B0008AD0100082DE9F05F0546002034
:1002B00092469B4688460646814640241BE02846D7
:1002C00041464746224600F0C6F953465A46C01AF0
:1002D000914110D311461846224600F0ADF92D1A6F
:1002E00067EB01084F4622460120002100F0A4F9E7
:1002F00017EB00094E41201EA4F10104DFDC484643
:1003000031462A464346BDE8F09F40EA01039B0779
:1003100003D009E008C9121F08C0042AFAD203E07A
:1003200011F8013B00F8013B521EF9D27047D2B2DE
:1003300001E000F8012B491EFBD270470022F6E7CE
:1003400010B513460A4604461946FFF7F0FF20464B
:1003500010BD421E12F8013F002BFBD111F8013BEA
:1003600002F8013B002BF9D17047034611F8012B2D
:1003700000F8012B002AF9D1184670472DE9FE4FED
:10038000804681EA0300C00F0C46009021F0004136
:1003900023F00045B8EB0200A94105D240462146B2
:1003A00090461C460B46024623F00040104347D0BF
:1003B000270DC7F30A00C3F30A510290401A0190B7
:1003C00040286BDAC3F3130040F4801B0098924678
:1003D00020B10023D2EB030A63EB0B0B01985946C3
:1003E000C0F14002504600F027F906460D4650463F
:1003F0005946019A00F03FF910EB080061410024D2
:1004000087EA115284EAE7731A4340D0009A62B334
:10041000019A012A4FEA075215DC001B61EB020129
:100420004FF0004202EA0752CDE90042001C41F5BC
:10043000801132462B4600F076F903B0BDE8F08F0C
:1004400040462146F9E7001B61EB0201001C41F523
:10045000801300185B412018A2F5001747EB030139
:1004600040EAD570B6196D4111E06D084FEA3606C5
:1004700045EAC0754FEA0752001B61EB0201001C00
:1004800041F5801149084FEA3000001951413246C8
:100490002B4603B0BDE8F04F00F036B900980122BA
:1004A00040000023D0EB020263EBE073009821468A
:1004B0004FEAE074B8EB000061EB0401E9E783F078
:1004C00000435BE781F0004158E72DE9FE4F81EAE8
:1004D000030404F0004421F0004100944FF0000BAD
:1004E00023F0004350EA01045ED052EA03045BD0DB
:1004F000C3F30A54C1F30A552C44A4F2F334019413
:10050000A0FB0254C1F3130141F48011C3F31303A0
:1005100043F4801301FB024400FB034E840A970A54
:1005200044EA815447EA8357A4FB076802958D0A81
:1005300005FB07854FEA932C04FB0C542705029D0D
:100540004FEA065847EA1637B5EB08056EEB070C7D
:10055000870E920E47EA811742EA8312A7FB020137
:10056000B6EB0B0164EB00042B0D43EA0C335E1871
:1005700044EB1C50DA465146E7FB0201C5F3130475
:100580004FEA0B3343EA14534FEA0432019C43EA27
:100590000603A4F10C040294009CCDE900B400F021
:1005A000C2F803B0BDE8F08F00200146F9E700F083
:1005B000004230F000400AD0C10D01F56071C0F377
:1005C000160042EA0151C20840071143704700205B
:1005D0000146704701F0004330B421F0004150EA79
:1005E000010206D00A0DA2F56072C1F31301002AC0
:1005F00002DC30BC00207047440F44EAC104C10053
:10060000E01830BC00EBC25000F047B830B50B46E4
:10061000014600202022012409E021FA02F59D4232
:1006200005D303FA02F5491B04FA02F52844151E06
:10063000A2F10102F1DC30BD202A04DB203A00FAED
:1006400002F1002070479140C2F1200320FA03F329
:10065000194390407047202A04DB203A21FA02F027
:100660000021704721FA02F3D040C2F120029140EC
:10067000084319467047202A06DBCB17203A41FA77
:1006800002F043EAE07306E041FA02F3D040C2F11F
:10069000200291400843194670470029A8BF7047BF
:1006A000401C490008BF20F00100704710B4B0FAA8
:1006B00080FC00FA0CF050EA010404BF10BC704743
:1006C00049B1CCF1200421FA04F411FA0CF118BF5D
:1006D000012121430843A3EB0C01CB1D4FEA00612C
:1006E0004FEA102042BF002010BC704700EBC350FF
:1006F00010440029A4BF10BC7047401C490008BF2B
:1007000020F0010010BC704710B5141E73F10004F6
:1007100008DA401C41F1000192185B411A4301D1F3
:1007200020F0010010BD2DE9F04D92469B4611B11D
:10073000B1FA81F202E0B0FA80F220329046FFF77F
:100740007BFF04460F4640EA0A0041EA0B0153468C
:100750005A46084313D0114653EA010019D0C8F194
:1007600040025046FFF777FF05460E465046594671
:100770004246FFF761FF084305D0012004E0204610
:100780003946BDE8F08D0020054346EAE0762C436B
:1007900037430A986305E40AA0EB08000022FD0A2B
:1007A00044EA47540A3002D500200146E9E7010532
:1007B00010196941DDE9084500196941BDE8F04DAE
:1007C000A2E72DE9F04D81EA030404F0004B21F08B
:1007D000004514464FF0000A23F0004150EA05029C
:1007E00020D054EA01021DD0C5F30A570246C5F3D2
:1007F0001303C1F31300C1F30A5640F4801543F408
:100800008013A7EB0608101BD64608F2FD3873EBE1
:10081000050002D308F1010801E092185B41B8F12C
:10082000000F03DA00200146BDE8F08D00204FF4F0
:100830008011064684460EE0171B73EB050705D3AF
:10084000121B63EB050306434CEA010C49084FEA0F
:10085000300092185B4150EA0107EDD152EA0300E3
:1008600012D082EA040083EA0501084305D0101B78
:10087000AB4106D20122002306E000224FF00043E4
:1008800002E06FF0010253101AEB06004CEB085126
:1008900010EB0A0041EB0B01BDE8F04DFFF734BF50
:1008A00070B521F0004303430CD0C1F30A55002476
:1008B000D5EB040564EB0403D617AD1AB34102DB94
:1008C0000020014670BD201841EB025170BD2DE99A
:1008D000F04D00231A461B1A8A4103DB0020014613
:1008E000BDE8F08DC1F30A52C1F3130141F4801544
:1008F0004FF0000BD10702D100186D41521E0027A6
:10090000044640F2FF11384601EB620A3E4680463B
:10091000024600204FF48011FFF79DFEC21971417D
:10092000BB1846EB0100B4EB030C75EB000C04D3D1
:10093000E41A65EB000517460E46241908F101007C
:100940006D4180463428E3DDF91946EB0600091BAA
:10095000A84103D24FF0FF32134601E000221346B4
:100960001BEB070046EB0A51BDE8F04DFFF7CCBE8C
:100970000EB5C10F80EAE0700844CA07002140F2BA
:1009800033438DE80E000A460B46FFF7CCFE03B05A
:1009900000BD000030B5041E71F1000404DB4FF00F
:1009A0000044404264EB0101141E73F1000405DBB6
:1009B0001C464FF00043524263EB04038B4208BFD6
:1009C000824230BD30B5041E71F1000404DB4FF0EB
:1009D0000044404264EB0101141E73F1000405DB86
:1009E0001C464FF00043524263EB0403994208BF98
:1009F000904230BD064C074D06E0E06840F0010330
:100A000094E8070098471034AC42F6D3FFF7D2FBC6
:100A1000A8D50008C8D5000870B58C1810F8015B7F
:100A200015F0070301D110F8013B2A1106D110F887
:100A3000012B03E010F8016B01F8016B5B1EF9D18B
:100A40002B0705D40023521E0DD401F8013BFAE711
:100A500010F8013BCB1A921C03E013F8015B01F87C
:100A6000015B521EF9D5A142D8D3002070BD000011
:100A70009FED221A9FED222A20EE010AB5EE001A00
:100A800030EE010ABDEEC01A11EE100AB5EE400AB2
:100A9000F1EE10FAB8BF013801EE100AB8EEC11A33
:100AA00030EE410A20EE020ABDEEC01A9FED152A73
:100AB00011EE100A002130EE021AB1EB502F4CF665
:100AC000A4511CBF0020B0EE410AC0F6000101EEA7
:100AD000100A01EB8001B8EE411A30EE410A91EDA7
:100AE000001A91ED012AB7EE003A33EE403A23EEB8
:100AF000011A20EE020A31EE000A704783F9223E05
:100B000000000044000000C49FED201A9FED202A41
:100B100020EE010ABDEEC01A11EE100AB5EE400A31
:100B2000F1EE10FAB8BF013801EE100AB8EEC11AA2
:100B300030EE410A20EE020ABDEEC01A9FED152AE2
:100B400011EE100A002130EE021AB1EB502F4CF6D4
:100B5000A4511CBF0020B0EE410AC0F6000101EE16
:100B6000100A01EB8001B8EE411A30EE410A91ED16
:100B7000001A91ED012AB7EE003A33EE403A23EE27
:100B8000011A20EE020A31EE000A704783F9223E74
:100B900000000044000000C4464910B54A6822F431
:100BA00040324A604A6843681A434A6001684A68AA
:100BB00022F480724A6001684A68036942EA0322AB
:100BC0004A6001684A6822F040724A6001684A68D7
:100BD00083681A434A6001688A6822F400628A6066
:100BE00001688A68C3681A438A60816A6FF070621C
:100BF000D14201688A6822F070628A6001688A685E
:100C00000CD0836A1A438A6001688A6822F04052D5
:100C10008A6001688A68C36A1A4301E022F0405280
:100C20008A6001688A6822F002028A6001688A6824
:100C3000037E42EA43028A6090F82010002901688E
:100C40004A680FD042F400624A6001684A6822F4A0
:100C500060424A6001684A68174C436A04EB4333B8
:100C60001A4301E022F400624A600168CA6A22F471
:100C70007002CA620168CA6A838B104C04EB03538A
:100C80001A43CA6201688A6822F400728A600168A5
:100C90008A6890F8303042EA43228A6001688A68A4
:100CA00022F480628A6001688A68406942EA802092
:100CB000886010BD0023014000E0FFFF0000F0FF4E
:100CC00008F05CB808F05CBBFFF7D2BEF0EE400A5B
:100CD000F5EEC00AF1EE10FA02DDB0EE600A7047E0
:100CE000B1EE600AFBE70000002803D09FED020A86
:100CF00080ED000A7047000000000000002803D0CB
:100D00009FED020A80ED000A70470000AE47B9412E
:100D100070B52DED0C8B84B006460C4615469FED44
:100D2000990AF0EE408A9FED970AB0EE409A9FED47
:100D3000950AF0EE40BA9FED930AF0EE409A9FEDCF
:100D4000910AB0EE40AA0EB104B11DB904B0BDECD9
:100D50000C8B70BD8C48FFF7C7FF8C48FFF7CEFFA8
:100D60008A48D0ED000A9FED8A1A60EE810AB0EE43
:100D7000600A00F031F9F0EE408A28EEA80AF0EEA1
:100D8000408A8248D0ED000AB0EE001A60EE810A77
:100D90009FED7F1A60EE810AB0EE600A00F01CF948
:100DA000B0EE409A29EE090AB0EE409ADFED790ADA
:100DB000B7EE000A00EEA80ADFED770A00EEC90AD6
:100DC000DFED760A20EE200A754880ED000A6E48B5
:100DD00090ED000ADFED730A80EE201AB7EE000AEC
:100DE00031EE000A20EE000A6D48D0ED000A80EED8
:100DF000801A6D4880ED001A94ED000AB5EEC00A25
:100E0000F1EE10FA0DD194ED010AB5EEC00AF1EE43
:100E100010FA06D194ED020AB5EEC00AF1EE10FA0E
:100E200046D09FED580AB0EE408A00200190029013
:100E30000390D4ED000A60EEA00A94ED011AD4EDFF
:100E4000011A41EE210A94ED021AD4ED021A41EE84
:100E5000210AB0EE600A00F0A9F8B0EE408A94EDE5
:100E6000000A20EE080A8DED010A94ED010A20EE39
:100E7000080A8DED020A94ED020A20EE080A8DEDB3
:100E8000030ADDED010AF1EE600AB0EE600AFFF739
:100E900017FFF0EE409A9DED031AF0EE410A9DED2A
:100EA000021AB0EE410AFFF70DFFB0EE40AA07E0CC
:100EB0009FED340AF0EE409A9FED320AB0EE40AA60
:100EC00095ED000AB5EEC00AF1EE10FA0DD195EDE0
:100ED000010AB5EEC00AF1EE10FA06D195ED020A4C
:100EE000B5EEC00AF1EE10FA3CD0B0EE690A00F09F
:100EF00073F8B0EE408AB0EE690AFFF7E5FEB0EE97
:100F000040DAB0EE4A0A00F067F8F0EE40AAB0EE20
:100F10004A0AFFF7D9FEB0EE40BA28EE2A0AD5ED0C
:100F2000010A20EE200AD5ED000A0DEE200A68EE37
:100F30000B0A95ED021A00EE810AB0EE40CA95ED5B
:100F4000010A20EE0B0AD5ED020A0AEEE00AF0EEE5
:100F500040CAF0EE6C0AB0EE4C0AFFF7B3FEF0EEBA
:100F600040BA03E09FED070AF0EE40BAB0EE4A1A2D
:100F7000F0EE690AB0EE6B0A304609F037FD00BFAB
:100F8000E4E6000000000000C0070020C4070020C5
:100F900035FA8E3CC1BFAD3B9DF8C5362F7C1C4158
:100FA000C8070020506CC24ACC07002010EE100A7F
:100FB000F6EE000A074960EE200AA1EB600000EEA1
:100FC000100A20EE801AF7EE080A41EE400A20EEE1
:100FD000800A7047DF59375FFFF796BD2DE9F04172
:100FE0002DED028B9AB00546B0EE408A0E461746AC
:100FF000984600201790189019901490159016900C
:101000004DB146B13FB1B8F1000F04D0B5EEC08A82
:10101000F1EE10FA05D100201AB0BDEC028BBDE84C
:10102000F08196ED000A8DED170A96ED010A8DED1F
:10103000180A96ED020A8DED190A97ED000A8DED5A
:10104000140A97ED010A8DED150A97ED020A8DED50
:10105000160A17AA14A9284609F01AFB402104A869
:10106000FFF76CF90020009001900290039000249B
:1010700017A904A80AF0E0FC00BF30E004A800EBC8
:10108000041090ED000AD5ED000A20EE200A04A815
:1010900000EB0410D0ED010A95ED011A00EE810A73
:1010A00004A800EB0410D0ED020A95ED021A00EE40
:1010B000810A04A800EB0410D0ED030A95ED031A91
:1010C00000EE810A20EE080AF0EE000A80EE201AF7
:1010D000684600EB840080ED001A601CC4B2042C4A
:1010E000CCDB002410E005EB840090ED000A68469C
:1010F00000EB8400D0ED000A30EE200A05EB8400FE
:1011000080ED000A601CC4B2042CECDB28460AF017
:1011100077FB012080E7000010B588B00AF018FDC9
:10112000234802F0DFFD234802F0DCFD224802F0F4
:10113000D9FD224802F0D6FD08211F4803F020F80F
:101140001D4940F276200968C86300F057F900F0A5
:1011500073F91B480068416941F002014161194877
:101160000068416941F00201416109F0FDFC164C43
:101170001648E16888472068804715480168154887
:10118000884705F041FA00F017FD1C221249684615
:10119000FFF7BBF8002168460AF044F80F494861A0
:1011A00000200AF0BDFD0AF0F3FC08B010BD0000FD
:1011B000180B0020A80B0020F00B0020380C00209A
:1011C000700A0020980A00201C050020800C0020D6
:1011D000C4060020080D0020BCC700080000002045
:1011E00010B5114CA178491CC9B2A170642916D25E
:1011F00090ED000A0D4A10EE101ADFED0D0A914233
:1012000002DD30EE600A06E010EE101A094A914243
:1012100005D930EE200A80ED000AFFF7E1FFA07843
:10122000401EA07010BD00002800002000003443C4
:101230000000B443000034C330B50C4605000CD0A8
:10124000022C0AD90548A11EC28B284600F0A6FF31
:10125000291901F8020D000A487030BDD00600209F
:1012600030B50C46050008D0022C06D9FF22611EBD
:1012700000F0AAFF291901F8010C30BDFEE70000BB
:101280008EB02F4E4FF0FF3840F2751709AD424631
:1012900005A930680AF09EFF059CBC420CD11422BF
:1012A00029466846FFF731F80DF1180C20469CE8F6
:1012B0000E0000F0F5FDEAE7A4F58071853917D03E
:1012C000A4F54071013920D0B4F5C06F2AD0A4F53F
:1012D00000710639DBD1142229466846FFF715F85C
:1012E0000DF1180C20469CE80E0007F0A7FCCEE795
:1012F000142229466846FFF708F80DF1180C20461D
:101300009CE80E0000F0E4FDC1E71422294668467F
:10131000FEF7FBFF0DF1180C20469CE80E0004F0D0
:10132000D5FFB4E7142229466846FEF7EEFF0DF11B
:10133000180C20469CE80E0006F07AFBA7E7000098
:1013400000000020084810B500684069800705D5F6
:10135000064801220168044800F08CF8BDE81040FE
:10136000014801F0ACB90000700A00200000002024
:101370008EB0164E4FF0FF3709AD3A4605A93068DA
:101380000AF028FF059CA4F2012003280CD814229F
:1013900029466846FEF7B9FF0DF1180C20469CE877
:1013A0000E0004F0DBFAE8E7A4F205200328E4D8F5
:1013B000142229466846FEF7A8FF0DF1180C2046B6
:1013C0009CE80E0004F0E8FAD7E7000004000020D3
:1013D000084810B500684069800705D50648022214
:1013E0000168044800F046F8BDE81040014801F0EB
:1013F00066B90000980A00200400002000B58BB0F8
:1014000000200121CDE90601059000900190029095
:10141000039004900E20CDE908106946054801F0BC
:1014200053F8044801F05AFB0221024800F0CCFFB7
:101430000BB000BD700A002000B58BB00E200590E7
:1014400000200121CDE90601039000900190029057
:10145000089104906946064801F036F8044801F006
:101460003DFB0221024800F0AFFF0BB000BD0000C1
:10147000980A0020F0B5521E0E46D5B205EB450184
:1014800001EB0512114993B001EB820404F128012C
:101490000F460A4604F14403002101F09CF805EBD5
:1014A000C502684600EB820539461C222846FEF735
:1014B0002CFFD4E91101C5E90701002329461A468A
:1014C00030460AF027FE13B0F0BD00002C110020BA
:1014D00090ED080A002180ED020A80ED060A016104
:1014E000704708B5014680EC020A30EE600A80EDD4
:1014F000020AD0ED030AD0ED051A30EE601A21EE93
:10150000211AD0ED061A61EE801ACDED001AF0EE28
:10151000001A00EEE10AD0ED040A30EE200AD0ED08
:10152000070A684660EE201A91ED0D0A09F09BF853
:10153000DDED000A91ED0B0A01F12C0071EE200A9D
:1015400070EEA10A30EE200A81ED0B0A91ED0C0A33
:1015500009F089F891ED030A81ED040A91ED020A80
:1015600081ED030A91ED0B0A08BD00B5014680EC40
:10157000020A30EE600A80ED020AD0ED030A70EE36
:10158000600AC0ED040A90ED051A21EE001A80ED04
:10159000081A90ED091AD0ED061A01EE801A80EDB6
:1015A000091A90ED070A01F1240020EE800A81ED6E
:1015B0000A0A91ED0E0A09F056F891ED080AD1EDEC
:1015C000090A01F12C0030EE200AD1ED0A0A30EEB2
:1015D000200A81ED0B0A91ED0C0A09F044F891ED17
:1015E000020A81ED030A91ED0B0A00BD10B500F06F
:1015F00011F9BDE8104000F001B8000070B5394C99
:10160000A52020703320A4F801000020E07004F62B
:101610004210A0F5186151F83E2F40F8622F097969
:101620000171052104F6A410FFF71AFE40F2013003
:1016300024F8050F09F0BCFA4FF4887060802A483E
:101640002A4D19210078A080688D24F8060F1420F7
:10165000A07034F8050F20F47070803024F8100961
:10166000207C20F00700401C40F038002074607C93
:1016700020F03C0020306074B4F8110061F38E104B
:10168000A4F81100608A0C2161F3CF106082A08A57
:101690000A216FF30900801CA082B4F8150061F3E1
:1016A0008C00A4F81500E08A4FF42F7161F34F10FD
:1016B000E0820C480EA11C30FEF757FE3522611D5A
:1016C0000F48FEF722FE0E483C21401FFFF7B4FDF5
:1016D0003C22EA72BDE870400949FF23491F0948CE
:1016E00003F06CB89619002091170020D006002056
:1016F0004341505F454E47455247593A000000006C
:101700003F230020080D002070B53B4CA520A11EF2
:1017100020703320A4F801000020E07004F67E1051
:10172000D1F8022040F8622F89790171052104F572
:101730001E60FFF795FD40F2013024F8050F09F017
:1017400037FA4FF4887060802C4828210078A080F8
:101750002B48408D24F8060F1320A07034F8050F95
:1017600020F47070803024F81009207C20F00700ED
:10177000801C40F038002074607C20F03C00001D8C
:101780006074B4F8110061F38E10A4F81100608A3F
:10179000042161F3CF106082A08AFA216FF309005F
:1017A000001DA082B4F8150061F38C00A4F81500A8
:1017B000E08A40F28A2161F34F10E0821148817D76
:1017C0000D481C30054609F083FA0FA12846FEF7A4
:1017D000C0FD3522611D0D48FEF797FD0B483C21E9
:1017E000401FFFF729FDBDE8704008493C22FF2358
:1017F000491F074802F0E2BF5A1900209117002044
:10180000D00600203C260020250000003F230020B9
:10181000080D002070B53C4CA520A11E207033207F
:10182000A4F801000020E07004F67E10D1F8022038
:1018300040F8622F89790171052104F51E60FFF7D8
:101840000FFD40F2013024F8050F09F0B1F94FF413
:10185000887060802D482E4D28210078A080688DEA
:1018600024F8060F1320A07034F8050F20F47070D0
:10187000803024F81009207C20F00700401C40F044
:1018800038002074607C20F03C00001D6074B4F8C7
:10189000110061F38E10A4F81100608A042161F335
:1018A000CF106082A08AFA216FF30900001DA08288
:1018B000B4F8150061F38C00A4F81500E08A40F23A
:1018C0008A2161F34F10E0821248817D0E481C305E
:1018D000064609F0FDF910A13046FEF73AFD352223
:1018E000611D0E48FEF711FD0C483C21401FFFF71B
:1018F000A3FC3C22AA72BDE870400849FF23491F9F
:10190000074802F05BBF00005A1900209117002021
:10191000D00600203C260020250000003F230020A8
:10192000080D002070B5994CA52004F80F0951202E
:1019300020820020A0749648A0F508610A6AC0F8C9
:101940000E2091F82410817405210E30FFF788FCD9
:1019500040F20130A08209F02BF940F20310E0823E
:101960008C488D4D48F23F0100782083688D60835C
:101970000120207714F81F0F4FF4E17220F03F0090
:10198000401C2070208820F4707000F5A07020802A
:10199000607820F03C0008306070B4F80100084026
:1019A000A4F80100A07800F07F006080A0886FF3A9
:1019B0000900C01CA080B4F8050062F38C00A4F8F4
:1019C0000500A0794FF4167200F01F00E080208916
:1019D0006FF309002081B4F8090062F38C00A4F8C9
:1019E00009006389C82060F34F13638102232373C6
:1019F000E37B23F03F035B1CE373B4F80F3023F465
:101A0000707303F5A073A4F80F30237C23F03C031C
:101A100008332374238A0B402382637C03F07F0303
:101A2000A4F81130B4F813306FF30903DB1CA4F8E9
:101A30001330A38A4FF4B96666F38C03A382637DE7
:101A400003F01F03A4F81530B4F817306FF309033F
:101A5000A4F81730268B40F2325363F38C062683AA
:101A6000B4F8196060F34F16A4F819600326E676FF
:101A7000A67F26F03F06761CA677E68B26F47076C6
:101A800006F5A076E683E67F26F03C060836E67784
:101A9000B4F81F600E40A4F81F6094F8206006F0B0
:101AA0007F062684668C6FF30906F61C668434F87C
:101AB000236F62F38C0624F8016B8600228860F3A2
:101AC0004F1224F8022B22886FF3090224F8012B0D
:101AD000228866F38C0224F8012B228860F34F12CF
:101AE00024F8022B042204F8012BA27822F03F02F2
:101AF000521CA270628822F4707202F5A072628099
:101B0000E27822F03C020832E270B4F803200A4086
:101B1000A4F80320217940F26A4201F07F01A180FC
:101B2000E1886FF30901C91CE180B4F8071063F381
:101B30008C01A4F80710218960F34F11218161897C
:101B40006FF309016181B4F80B1062F38C01A4F802
:101B50000B1034F80C1F532260F34F110C4824F87B
:101B60000C1BA4F14E011330FEF7CFFB08485A219D
:101B70000E30FFF761FB5A22AA74BDE87040044999
:101B8000FF230E31054802F019BE0000F81B0020AB
:101B90005824002091170020D0060020080D0020B6
:101BA0000448D0EC020AD0ED031A90ED020A00F0CE
:101BB00025B80000D00500200B489FED0A0A0E4909
:101BC00080ED230A9FED090A80ED4B0A9FED080A7C
:101BD00080ED730A9FED070A80ED9B0A0120C86320
:101BE000704700001F05A7C2641400209A992FC2F5
:101BF00085EBA0C2A4B044432800002004F006BE38
:101C000006480749002203881BB181F8282002807A
:101C10007047012381F82830F9E70000B40600205E
:101C20002C17002004480021027B12B1417301737C
:101C3000704701224273FAE7C411002004480021D2
:101C4000428812B101714180704701220271FAE7A6
:101C50001607002008489FED090A0168B1F17E5F70
:101C600004DAF7EE000AC0ED010A01E080ED010A96
:101C700080ED000A704700005C2600200000000094
:101C800008489FED090A0168B1F17E5F04DAF7EEBA
:101C9000000AC0ED010A01E080ED010A80ED000AB2
:101CA00070470000380700200000000007480021AE
:101CB000B0F84E202AB180F8501000BFA0F84E10A6
:101CC0007047012280F85020F8E70000B80F00208C
:101CD00010B502460020054B04E000BF12F8014B8E
:101CE0004440185D491E89B2F8D210BDD8C700081B
:101CF00070EE600AFDEEE00A10EE900ADFED060AD3
:101D0000B42802DD30EE600A704710F1B40FFBDA40
:101D100030EE200A704700000000B44308B50AF016
:101D200095FB104D104E0127DFF840804FF0000961
:101D30000F4C0090FFF776FFE8688047707B012822
:101D40000BD084F81F9000BFFFF784FFFFF798FFC8
:101D5000C821684609F09EFFECE7E777D8F8000055
:101D60008047F1E7A0060020C41100209005002064
:101D7000D00500200FB40098A0F5807195390BD1E3
:101D8000064900206A4613181B7F0B54401C082884
:101D9000F9DB0888401C088004B07047B4060020B6
:101DA0000FB40098A0F58071653908D1054A00206C
:101DB00069460B181B7F1354401C0828F9DB04B03C
:101DC00070470000BC06002009F088B8014800F008
:101DD00013BF0000500E0020014800F00DBF0000AE
:101DE000900D0020014800F007BF0000B00E002059
:101DF000014800F001BF0000F00D00200168182329
:101E0000CAB2103AB2FBF3F2054B6FF30901032A91
:101E10009B5CC36500D9091D8165084670470000B9
:101E2000F4CB000810B5014600208B698A6A4FF098
:101E3000C07453B1B3F5005F15D072B1012A0CD054
:101E4000022A0AD0032A09D104E01AB1012A06D0D5
:101E5000022A03D1C96AC90100D5012010BDC96A8F
:101E6000A142FAD010BD002AF7D0012AF2D0022AEE
:101E7000F3D0032AF3D010BD30B50468256825F4EB
:101E800080252560046863608368402B036803D065
:101E900099600068C26030BD9A600068C16030BD62
:101EA0000948DDE90312037B5B1C03738BB25BBA49
:101EB000090C838049BAC18091B249BA01800349B3
:101EC000100C40BA08707047C4110020340500207F
:101ED000DDE90301064B82B252BA1A81054A000CB1
:101EE00040BA907088B2044940BA08707047000048
:101EF000C4110020340500203407002070477047CB
:101F000070B5994CA52004F80F09512020820020BB
:101F1000A0749648A0F5F06151F81F2FC2640979AA
:101F200080F8501005214C30FFF79AF940F201304B
:101F3000A08208F03DFE40F20310E0828A488C4DFA
:101F4000E6384FF4617200782083688D6083092041
:101F5000607714F81F0F4FF47F7320F03F00401C90
:101F60002070208820F470702080607820F03C0081
:101F700008306070B4F8011048F23F000140A4F846
:101F80000110A17801F07F016180A1886FF3090140
:101F9000491CA180B4F8051062F38C01A4F8051067
:101FA000E2884FF4C87161F34F12E28022896FF327
:101FB00009022281B4F8092063F38C02A4F80920F5
:101FC00062894FF4667361F34F1262810A21617373
:101FD000E27B22F03F02521CE273B4F80F2022F49D
:101FE0007072A4F80F20227C22F03C020832227486
:101FF000228A02402282627C02F07F02A4F8112031
:10200000B4F813206FF30902521CA4F81320A28A1B
:102010004FF47A7663F38C02A282B4F815304FF451
:10202000B47262F34F13A4F81530B4F817306FF39D
:102030000903A4F81730238B66F38C032383B4F8C9
:1020400019304FF4757662F34F13A4F81930A27F5C
:102050004FF46B7322F03F02521CA277E28B22F402
:102060007072E283E27F22F03C020832E277B4F839
:102070001F200240A4F81F2094F8202002F07F02C5
:102080002284628C6FF30902521C6284B4F823200C
:1020900063F38C02A4F82320A38C4FF49B7262F3A9
:1020A0004F13A384E38C6FF30903E384B4F8273060
:1020B00066F38C03A4F82730238D62F34F13238536
:1020C0002177A17F21F03F01491CA177E18B21F409
:1020D0007071E183E17F21F03C010831E177B4F8D0
:1020E0001F100140A4F81F1094F8200000F07F009A
:1020F0002084608C40F2B1316FF30900401C608491
:10210000B4F82300721F61F38C00A4F82300A18CA3
:102110004FF48C7060F34F11A184E18C6FF30901CF
:10212000E184B4F8271062F38C01A4F8271034F886
:10213000281F532260F34F110C4824F8281BA4F1E8
:102140005B015130FEF7E1F808485A214C30FFF7A7
:1021500073F85A226A72BDE870400449FF234C317B
:10216000044802F02BBB000077180020D81F002085
:10217000D0060020080D002090ED001AD1ED000AD5
:1021800031EE601A40EE010AC1ED000A704700000E
:102190000148407870470000B80F002010B558B1D2
:1021A000084C491E0BD310F8013B5340DBB234F806
:1021B000133083EA1222F4E74FF6FF7010BD104689
:1021C00010BD0000F4C9000810B5054C04E000BFC4
:1021D00010F8013B5340E25C491EF9D2104610BD95
:1021E000F4C8000802F0E8BE78B50024009490F826
:1021F0003C20012A19D0012280F83C200A680723DC
:102200000568092A13D9EE680A3A02EB42029340A4
:102210009E43EE600B788A680A3B03EB43039A40C7
:102220000368DD682A43DA6010E0022078BD2E6979
:1022300002EB420293409E432E610B788A6803EBC7
:1022400043039A4003681D692A431A614A681F23A1
:10225000072A13D205686E6B521E02EB820293406E
:102260009E436E630A8893B20A79521E02EB820281
:1022700093400268556B2B43536327E005680D2A92
:1022800012D22E6BD21F02EB820293409E432E632A
:102290000B790A88DB1F92B203EB83039A40036831
:1022A0001D6B2A431A6311E0EE6A0D3A02EB8202BB
:1022B00093409E43EE620B790A880D3B92B203EB8A
:1022C00083039A400368DD6A2A43DA621B4B056880
:1022D000194A9D420AD10D68122D07D1556825F47F
:1022E00000055560556845F48005556005689D42B8
:1022F0001DD1134D0B68AB4201D0112B17D1536880
:1023000023F480035360536843F400035360096867
:10231000A9420CD10B490C4A0968B1FBF2F101EB5F
:102320008101490000E0491E00910029FBD180F89D
:102330003C40002078BD0000002301400020014007
:10234000120000105407002040420F0070B5040036
:102350004FF0000503D0206C002610B107E00120EB
:1023600070BD204600F01CF8666484F83C60206C68
:10237000C00610D4206C20F4885040F00200206485
:102380002046FEF709FC6664206C20F0020040F055
:102390000100206400E0012584F83C60284670BDFF
:1023A00008B500680649884208D10648016841F42A
:1023B00080710160006800F48070009008BD00002A
:1023C000002001404438024090F82020012A07D024
:1023D000022A05D0416A41F4802141620120704700
:1023E000006842690A43426100207047F0B590F8E6
:1023F00020500468A468012D05D0022D03D0416A45
:1024000041F480215DE014F0406F01D1E50055D525
:10241000C4F30164022C03D9416A41F4000150E085
:102420000125A5401D608D684FF4C0739DB1CE6835
:1024300035434E6845EAC605066803EB0417F551B7
:102440004FF4C275076805EB04150E697E51097DCE
:10245000012905D009E00E88CD6845EA4655EBE72D
:1024600001684E5946F480764E511179D5795679E6
:1024700041EA056195792D0445EA062529434FF483
:10248000C676056806EB0416A9511178D57841EA9D
:102490000561957852782D0445EA022211434FF4E4
:1024A000C475026805EB04155151006803EB041173
:1024B000425842F0010242500020F0BD416A41F40E
:1024C000001141620120F0BD10B590F82020012AD2
:1024D00007D0022A05D0416A41F4802141620120DF
:1024E00010BD3B48D0F8002242F00102C0F80022A3
:1024F000D0F8002222F47C52C0F80022D0F800224A
:102500004B6A42EA0322C0F800220A7D02F01F0350
:1025100001229A40D0F81C329343C0F81C32CB6998
:10252000B3B9D0F80C329343C0F80C328C894B68A5
:1025300064F31F434C6900EBC404C4F840320C89B7
:102540000B6864F31F434C6900EBC404C4F84432C5
:10255000CB69012B16D1D0F80C321343C0F80C32E2
:102560000C884B6864F31F434C6900EBC404C4F847
:1025700040320C89CB6864F31F434C6900EBC40400
:10258000C4F844328B69002BD0F804320ED01343C8
:10259000C0F804320B69002BD0F8143208D0134372
:1025A000C0F81432096A012904D008E09343EFE728
:1025B0009343F5E7D0F81C121143C0F81C12D0F871
:1025C000001221F00101C0F80012002010BD00002F
:1025D00000640040704730B590F82040012C05D0D1
:1025E000022C03D0416A41F480215DE00468002997
:1025F00055D02469A40754D04FF4D874056804EB6F
:1026000001142D5915F00405956005682D594ED01B
:10261000ED08556005682C5904F00204D4604FF4AD
:10262000DA74056804EB01142D5905F00F051561E6
:1026300005682D59C5F30725956105682C59240CAB
:1026400054614FF4DC72046802EB0112A4581C7050
:102650000468A458240A5C700468A458240C9C7074
:102660000468A258120EDA704FF4DE72046802EBAE
:102670000112A4581C710468A458240A5C710468EF
:10268000A458240C9C710468A258120EDA710068D8
:1026900081B1016941F020010161002030BDE46891
:1026A000A8E7416A41F400114162012030BD6D0D7F
:1026B0001560AFE7C16841F02001C160EDE72DE989
:1026C000F05F0546006800244669D0F804908768EA
:1026D000D0F80CB0D0F810A0D0F81880F10748D08E
:1026E000F90714D001218160B80703D5284600F00E
:1026F00022FA0CE0780702D54FF4006407E03807AF
:1027000002D54FF4805402E0284600F013FAF80591
:1027100016D529684FF480708860B80503D528461F
:1027200000F00BFA0CE0780502D544F4005407E001
:10273000380502D544F4804402E0284600F0FCF954
:10274000F80316D529684FF480308860B80303D5A4
:10275000284600F0F4F90CE0780302D544F4004474
:1027600007E0380302D544F4803402E0284600F044
:10277000E5F9300707D55FEACB6004D5296810205A
:1027800044F40074C86070074FF0080707D55FEA8B
:102790000B7004D52868C760284600F099F9B00787
:1027A00006D52868C068800702D0284600F091F955
:1027B000700607D55FEACA6004D52968102044F482
:1027C00080640861B00607D55FEA0A7004D52868FE
:1027D0000761284600F07EF9F00606D528680069F2
:1027E000800702D0284600F076F9B00308D55FEAEA
:1027F000C96005D5296810204860284600F06CF9AA
:10280000F00307D55FEA097004D5286847602846B9
:1028100000F096F9300446D55FEA497040D5F005DE
:1028200004D55FEAC87001D044F00104B00504D5B6
:102830005FEA887001D544F00204700504D55FEAB0
:10284000487001D544F00404300529D518F0700F04
:1028500026D008F07000402815D006DC102809D0DA
:1028600020280AD0302816D10AE050280ED060283F
:1028700011D10EE044F008040DE044F010040AE029
:1028800044F0200407E044F0400404E044F08004F5
:1028900001E044F480742868816921F0700181614D
:1028A000296804204860002C05D0686A20436862CB
:1028B0002846FFF78FFEBDE8F09F70B5040003D0F7
:1028C00094F8200010B104E0012070BD204600F013
:1028D00081F82068016841F00101016000F01CFCF2
:1028E0000546052604E000F017FC401B0A2811D815
:1028F00020684068C007F6D02068016821F0020116
:10290000016000F009FC05460BE000F005FC401BEF
:102910000A2806D9606A40F40030606284F82060BA
:10292000D2E7206840688007EFD4207E0128206825
:1029300001683DD021F080010160607E012820689F
:10294000016838D021F040010160A07E0128206894
:10295000016833D021F020010160E07E0128206869
:1029600001682ED041F010010160207F012820680D
:10297000016829D021F008010160607F01282068EA
:10298000016824D021F004010160D4E90201084368
:10299000D4E90412114308436168491E08432168C1
:1029A000C86100206062012084F82000002070BD12
:1029B00041F08001C0E741F04001C5E741F020014E
:1029C000CAE721F01001CFE741F00801D4E741F058
:1029D0000401D9E7F0B587B0044614216846FDF735
:1029E000ADFC364B3648DFF8D0E01968D4F800C0AB
:1029F000334A03250226092710300024491CF445D8
:102A000022D11960012907D1016841F000710160EC
:102A1000006800F000700590106840F00800106039
:102A20001068CDE9005600F00800CDE90470694651
:102A30002448CDE9024500F04FFA00220621142077
:102A400000F008FC142033E0DFF87CE0F44531D1DD
:102A5000D0F800C04CF0806CC0F800C0D0F800C0C6
:102A600001290CF0806CCDF814C0196007D1016801
:102A700041F000710160006800F00070059010687E
:102A800040F002001060106802AB00F002000590F8
:102A90004FF44050CDE9000683E8B00069460B488A
:102AA00000F01AFA00220521402000F0D3FB40205C
:102AB00000F0C2FB07B0F0BD00640040240000201D
:102AC00030380240000C0240006800400004024020
:102AD00070477047704770477047000070B50446F4
:102AE00090F82000012804D0606A40F40020606261
:102AF00018E0022084F820002068016821F001011C
:102B0000016000F009FB05460EE000BF00F004FB89
:102B1000401B0A2808D9606A40F400306062052032
:102B200084F82000012070BD20684068C007EDD106
:102B3000606270BD7047704770477047704770475C
:102B400070472DE9F0410446876D00F0E5FA06462E
:102B500094F835000025022806D08020606584F8AE
:102B600034500120BDE8F0812068016821F0160191
:102B700001602068416921F080014161206C08B941
:102B8000A06C20B12068016821F008010160206874
:102B9000016821F0010101600CE000F0BDFA801B2A
:102BA000052807D920206065032084F8350084F8C3
:102BB0003450D7E720680068C007EED194F85C1065
:102BC0003F208840B860012084F8350084F83450F4
:102BD0000020C7E790F83510022903D08021416515
:102BE00001207047052180F835100068016821F048
:102BF00001010160002070472DE9F84304464FF0C1
:102C00000009CDF8009063484FF41651A56D006897
:102C1000B0FBF1F72E6894F85C10082000FA01F17F
:102C200031420FD021680A6852070BD50A6822F09A
:102C300004020A6094F85C108840A860606D40F05F
:102C40000100606594F85C104FF0010808FA01F08B
:102C5000304208D021684969090604D5A860606D32
:102C600040F00200606594F85C1004208840304217
:102C700008D021680968890704D5A860606D40F014
:102C80000400606594F85C1010208840304218D031
:102C900021680968090714D5A860206801684903FC
:102CA00004D50068000308D5A16C07E00168C905D8
:102CB00003D4016821F008010160216C09B12046AC
:102CC000884794F85C1020208840304231D0216839
:102CD0000968C9062DD5A86094F835000528206834
:102CE000016806D0490347D5006800031DD4616C14
:102CF0001CE021F0160101602068416921F080018B
:102D00004161206C08B9A06C20B12068016821F0F5
:102D10000801016094F85C103F208840A86084F8A6
:102D2000358084F83490216D1FE0E16B09B12046B5
:102D30008847606D00282BD0606DC00714D0052037
:102D400084F835002068016821F0010101600098D5
:102D5000401C0090B84203D820680068C007F6D134
:102D600084F8358084F83490E16C002910D001B0EB
:102D70002046BDE8F04308470168C905D5D401687D
:102D800021F01001016084F8358084F83490CCE79C
:102D9000BDE8F883540700202DE9F041044600F017
:102DA000BBF906465CB1022084F83500002584F8A2
:102DB00034502068016821F0010101600DE001201C
:102DC000BDE8F08100F0A8F9801B052805D9202076
:102DD0006065032084F83500F2E720680068C007CA
:102DE000F0D12268116820480140D4E9010318435A
:102DF000D4E903363343184363691843A36918437E
:102E0000E3691843236A18430843616A042903D11C
:102E1000D4E90B1319430843106020684069666ABF
:102E200020F0070130460E43012704280CD1A06A88
:102E30000643E06A40B12046FEF7F4FF20B140208F
:102E4000606584F83570BAE7206846612046FEF771
:102E5000D5FF94F85C203F2191408160656584F83E
:102E600035700020ACE700003F8010F070B50446DC
:102E700090F83400002501280CD0012084F834009B
:102E800094F835600020012E06D084F83400022525
:102E9000284670BD022070BD022684F8356060654A
:102EA0002046FEF7E9FF2068016841F0010101605A
:102EB000EEE7000070B5044600F02EF90546601CF0
:102EC00002D004480078044400F026F9401BA042D8
:102ED000FAD370BD480700202DE9F84FDFF8F8A1BC
:102EE0000022012403254FF00F090AF1040BAAF177
:102EF000040E00BF0B6804FA02F63340B34270D1EF
:102F00000F7907F00307012F01D0022F16D1876830
:102F10004FEA420805FA08FC27EA0C07D1F80CC072
:102F20000CFA08FC4CEA070CC0F808C04768B74325
:102F30000E79C6F3001696403E4346600E79F6437E
:102F4000B6070AD0C7684FEA420C05FA0CF6B74339
:102F50008E6806FA0CF63E43C6600E7906F003064C
:102F6000022E10D1D60800EB8608D8F8206057074B
:102F70004FEAD76C09FA0CF7BE430F6907FA0CF752
:102F80003743C8F8207006684FEA420C05FA0CF780
:102F9000BE430F7907F0030707FA0CF737430760C2
:102FA0004E6816F4403F1CD04C4E376847F48047BB
:102FB0003760366822F0030706F480460096484ED4
:102FC00007EB060CDCF8086897073F0F09FA07F8CB
:102FD00026EA0806DFF80C81404503D14FF00008CF
:102FE00041E072E0DFF80081404502D14FF0010876
:102FF00039E0DFF8F880404502D14FF0020832E0B6
:10300000DFF8EC80404502D14FF003082BE0DFF8F9
:10301000E480404502D14FF0040824E0DFF8D88076
:10302000404502D14FF005081DE0DFF8D080404553
:1030300002D14FF0060816E0DFF8C480404502D107
:103040004FF007080FE0DFF8BC80404502D14FF099
:10305000080808E0DFF8B080404502D14FF00908C9
:1030600001E04FF00A0808FA07F848EA0608CCF829
:103070000888DAF800605746D1F804C09E435FEA3A
:10308000CC2C00D51E433E60DBF800605F46D1F8D3
:1030900004C09E435FEA8C2C00D51E433E60DEF8E0
:1030A00000607746D1F804C09E435FEA8C3C00D5AF
:1030B0001E433E60084F083F3E68D1F804C09E435F
:1030C0005FEACC3C00D51E433E60521C102AFFF440
:1030D00011AFBDE8F88F0000083C014044380240C1
:1030E000003001400000024000040240000802409D
:1030F000000C024000100240001402400018024080
:10310000001C024000200240002402400AB18161FC
:1031100070470904FBE70000014880687047000021
:103120004807002002488168027811448160704796
:10313000480700200B4810B5016841F40071016098
:10314000016841F480610160016841F480710160AF
:10315000032000F09FF8002000F006F800F050F87F
:10316000002010BD003C024030B505461F4887B026
:103170000024016841F010010160006806A900F018
:103180001000009001A800F031F90498A8B100F0F7
:103190004DF940001649174AB0FBF1F11648491E97
:1031A000026040F2E732C0E90324C0E901148461FF
:1031B00000F014FD040003D015E000F037F9E9E752
:1031C0000D4800F08FFD04000DD1362000F034F8DA
:1031D000102D07D200222946362000F03BF8074880
:1031E000056000E0012407B0204630BD40380240B1
:1031F00040420F0000100040100F00204C0700203C
:103200000C4882B0016841F480410160006800F41C
:10321000804000900748001F016841F08051016024
:103220000068002200F0805000900F21901E02B034
:1032300000F010B844380240002809DB00F01F02FB
:10324000012191404009800000F1E020C0F8001108
:1032500070470000F0B40E4B1B680C46C3F302230A
:10326000C3F10705042D00D90425191D072901D232
:10327000002300E0DB1E012606FA05F1491E21406D
:1032800099409E40761E16403143F0BC05F065BD66
:103290000CED00E0064900F0070208684FF6FF0356
:1032A000184040EA0220034A1043086070470000BB
:1032B0000CED00E00000FA052DE9F0470E46050090
:1032C00065D0DFF81481D8F80000F7B200F00F00E5
:1032D000B04207D288F80070D8F8000000F00F0064
:1032E000B04254D128683D4C810712D5400703D520
:1032F000206840F4E05020602878000703D520685B
:1033000040F4604020602068A96820F0F000084385
:1033100020602878C0072DD0304968680839012816
:1033200012D0022813D0032811D009688907002978
:103330002DDA216821F0030101432160FFF7ECFE43
:10334000814641F2883A0EE009688903EFE709688F
:103350008901ECE7FFF7E0FEA0EB0901514502D936
:103360000320BDE8F0872068696800F00C00B0EB2E
:10337000810FEFD1D8F80010404601F00F01B142A3
:1033800007D90770006800F00F00B04201D001209B
:10339000E7E72878400705D52068E96820F4E05081
:1033A000084320602878000706D52068296920F4A2
:1033B000604040EAC100206000F058F82168084AE7
:1033C000C1F30311515CC840064908600648006813
:1033D000FFF7CAFE0020C4E7003C02400838024064
:1033E000FCCB0008540700204C0700200F2202608D
:1033F0000C4A136803F003034360136803F0F003FF
:103400008360136803F4E053C36012684FF4E05321
:1034100003EAD20202610448006800F00F0008606D
:103420007047000008380240003C0240044805494B
:1034300000680968044AC1F38221515CC8407047A2
:1034400054070020083802400CCC00080448054905
:1034500000680968044AC1F34231515CC8407047B2
:1034600054070020083802400CCC0008154810B55D
:10347000006810F00C02144813D01449042A0FD02D
:10348000082A0ED10F4C241F2268236802F03F0245
:103490005B0207D52068C0F38810A0FB010106E09D
:1034A000084610BD2168C1F38811A1FB000100236B
:1034B000FCF7FAFE2168C1F30141491C4900B0FB49
:1034C000F1F010BD083802400024F400001BB700E2
:1034D0002DE9F84F04006ED02078DFF84C93C00738
:1034E000A9F104054AD009F104000168C1F3810182
:1034F000012908D00068C0F3810002280AD1D9F858
:103500000000400206D52868800337D5606800288F
:10351000E1D033E06068B0F5803F10D0B0F5A02F67
:10352000286810D020F480302860286820F480209B
:1035300028606068A8B1FFF7EFFD06460DE0286837
:1035400040F48030F4E740F480202860F7E700BFC3
:10355000FFF7E2FD801B642873D828688003F7D545
:103560000CE0FFF7D9FD064605E000BFFFF7D4FDEC
:10357000801B6428F0D828688003F7D42078DFF80F
:10358000AC8280074FF0000A3ED5A748001D0168B5
:1035900011F00C0F08D00068C0F3810002280BD195
:1035A000D9F80000400207D42868800716D5E068E3
:1035B000012800D112E033E1E068B8B10120C8F879
:1035C0000000FFF7A9FD064605E000BFFFF7A4FDD8
:1035D000801B0228C0D828688007F7D52868216991
:1035E00020F0F80040EAC10028600DE0C8F800A013
:1035F000FFF792FD064604E0FFF78EFD801B0228D0
:103600001FD828688007F7D42078000722D5864F76
:1036100087486169703771B101210160FFF77CFD56
:10362000064604E0FFF778FD801B022809D83868B9
:103630008007F7D50EE0C0F800A0FFF76DFD064645
:1036400005E082E0FFF768FD801B02287DD838681E
:103650008007F7D42078400768D5DFF8CCB1002781
:103660000BF13C0BDBF80000C0000BD4DBF80010C2
:1036700041F08051CBF80010DBF80000012700F08A
:10368000805000906B4E3068C00510D4306840F414
:1036900080703060FFF740FD009005E0FFF73CFDD3
:1036A0000099401A022850D83068C005F6D55E4E01
:1036B000A0686C3601280FD00528306810D020F0A3
:1036C00001003060306820F004003060A068B8B1BC
:1036D000FFF722FD00900FE0306840F00100F4E7B2
:1036E00040F004003060F7E7FFF716FD0099411A3B
:1036F00041F28830814266D830688007F4D50EE008
:10370000FFF70AFD009007E0FFF706FD0099411A58
:1037100041F28830814256D830688007F4D42FB106
:10372000DBF8001021F08051CBF80010A069C8B37D
:103730003D49091D0968C1F3810102294AD00228C7
:10374000504607D0C8F8600000E03CE0FFF7E4FC1A
:1037500004463BE04746C8F86000FFF7DDFC06463C
:1037600005E000BFFFF7D8FC801B02282BD8286893
:103770008001F7D4D4E907010843A16A2E4A490819
:1037800002EB0141626A41EA8211084394F82C106D
:1037900040EA0161C9F8001001203866FFF7BCFC5F
:1037A000044606E03EE000BFFFF7B6FC001B02281F
:1037B00009D828688001F7D534E000BFFFF7ACFCDA
:1037C000001B022802D90320BDE8F88F2868800179
:1037D000F4D427E00128F7D0D9F80000E26900F41A
:1037E000800191421CD1226A00F03F01914217D121
:1037F00047F6C071626A0140B1EB821F10D1A26A24
:103800004FF0FF3300F4403103EB5202B1EB024FB3
:1038100006D194F82C1000F07060B0EB016F01D06D
:103820000120D1E70020CFE70438024000004742E2
:10383000800E4742007000400000FFFF70B504009A
:1038400009D0606A002540B125616561A56294F8E0
:10385000510040B10CE0012070BD6068B0F5827F7E
:10386000F4D0E561F2E784F85050204600F044F8C7
:10387000022084F851002068016821F040010160B5
:10388000A088218900F4827001F404410843A189D1
:1038900001F400610843217C01F002010843217D0D
:1038A00001F001010843218B01F400710843217FDD
:1038B00001F03801084394F8201001F0800108431A
:1038C000218D01F40051084321680860A06904219A
:1038D00001EA104094F8241001F010010843216817
:1038E00048602068C16921F40061C16165650120FB
:1038F00084F85100002070BD10B586B00446142134
:103900006846FCF71BFD14492068884221D1134802
:103910000021026842F480120260006800F4801006
:1039200005900E481438026842F0200202600068D8
:1039300000F0200005904FF4607000900220CDE967
:103940000101032003900520049069460448FFF715
:10395000C3FA06B010BD00000050014044380240D8
:10396000001402402DE9F84F044690F8500000275B
:103970000A9E1D4692468B464FF0010901280ED043
:10398000012084F85000FFF7C7FB804694F85100EF
:10399000616801280CD0B1F5827F07D102E00220D6
:1039A000BDE8F88FA16809B9042801D00227C2E058
:1039B000BBF1000F27D0BAF1000F24D01DB394F84B
:1039C0005100042802D0052084F8510000206065D1
:1039D000C4F838A0E587A587C4F830B0E586A58689
:1039E0002064606420680168490603D4016841F0DE
:1039F00040010160E068B0F5006F606805D0E8B391
:103A0000012D46D07FE0012795E008B1012D39D185
:103A1000206B21680088C860206B801C2063E08ECA
:103A2000401EE0862EE02068816889070FD5E18E70
:103A300069B1B9F1010F0AD1216B0988C160206B0E
:103A4000801C2063E08E401EE0864FF00009206855
:103A50008168C9070CD0E18F51B1C068A16B0880A3
:103A6000A06B801CA063E08F401EE0874FF001092F
:103A7000FFF752FBA0EB0800B04200E009E001D3E1
:103A8000701C50D1E08E0028CDD1E08F0028CAD123
:103A90003FE0206B216800780873206B401C206396
:103AA000E08E401EE0862EE02068816889070FD5F1
:103AB000E18E69B1B9F1010F0AD1216B0978017367
:103AC000206B401C2063E08E401EE0864FF0000912
:103AD00020688168C9070CD0E18F51B1C068A16B23
:103AE0000870A06B401CA063E08F401EE0874FF081
:103AF0000109FFF711FBA0EB0800B04202D3701CD4
:103B000001D010E07EB1E08E0028CDD1E08F0028FA
:103B1000CAD142463146204602F0C0FD28B10127F5
:103B20002020606507E0032705E0A06818B9206839
:103B3000C16880680090012084F85100002084F85A
:103B4000500038462CE770477047000070B590F879
:103B50003C20012A32D0012480F83C40022280F827
:103B60003D2003685A689D6822F070060A68324357
:103B70005A60134B02689A4214D0B2F1804F11D0B0
:103B8000104B9A420ED0104B9A420BD00F4B9A42D8
:103B900008D00F4B9A4205D00E4B9A4202D00E4BE2
:103BA0009A4204D1496825F080031943916080F856
:103BB0003D40002180F83C10084670BD022070BDD9
:103BC000000001400004004000080040000C0040DC
:103BD00000040140004001400018004010B50400FE
:103BE00003D094F83D0010B107E0012010BD002083
:103BF00084F83C00204600F01FF8022084F83D00C5
:103C0000211D206803F0A4FF012084F8460084F8F9
:103C10003E0084F83F0084F8400084F8410084F8B6
:103C2000420084F8430084F8440084F8450084F896
:103C30003D00002010BD000008B501682448B1F126
:103C4000804F0AD0234A914216D1016841F0020107
:103C50000160006800F002002DE0016841F0010100
:103C600001600068002200F00100009005211C2086
:103C7000FFF7F0FA1C2010E0174A914211D10168B9
:103C800041F0040101600068002200F0040000908F
:103C900005211E20FFF7DEFA1E20BDE80840FFF7D1
:103CA000CBBA0E4A914208D1016841F00801016087
:103CB000006800F00800009008BD094A9142FBD15D
:103CC000016841F040010160006800F04000F2E747
:103CD000403802400004004000080040000C004052
:103CE0000018004090F83D10012901D001207047D4
:103CF000022180F83D100168CA6842F00102CA60E2
:103D000000681149884214D0B0F1804F11D00F499A
:103D100088420ED00E4988420BD00E49884208D006
:103D20000D49884205D00D49884202D00C4988428D
:103D300004D1816801F00701062903D0016841F030
:103D400001010160002070470000014000040040B4
:103D500000080040000C0040000401400040014009
:103D60000018004070B5044690F83C00002501287A
:103D700017D0012684F83C60022084F83D002068BA
:103D8000826822F0770222F47F428260086850281D
:103D900038D00DDC20284FD005DC90B3102811D18D
:103DA0004AE0022070BD302846D040280AD13BE0CE
:103DB00060282FD070280DD0B0F5805F03D0B0F50B
:103DC000005F12D0012584F83D60002084F83C009B
:103DD000284670BDCB68D1E90121206803F029FF96
:103DE0002068816841F0770109E0CB68D1E90121C1
:103DF000206803F01EFF2068816841F480418160E3
:103E0000E1E719E0CA684968206803F0E7FF50213C
:103E1000206806E0CA684968206803F0F0FF602166
:103E2000206803F010FFCEE7CA684968206803F0F5
:103E3000D5FF40212068F4E7226801461046F0E7EC
:103E4000704770B50446006801694FF00005C9432A
:103E5000890715D4C168C943890711D4E91E0161D6
:103E600001202077206880698007204602D0FFF774
:103E7000E7FF04E000F0EEF8204600F080F9257737
:103E800020680169C943490717D4C168C943490774
:103E900013D46FF00401016102202077206880694B
:103EA00010F4407F204602D0FFF7CAFF04E000F084
:103EB000D1F8204600F063F9257720680169C943ED
:103EC000090716D4C168C943090712D46FF0080165
:103ED0000161042020772068C0698007204602D055
:103EE000FFF7AEFF04E000F0B5F8204600F047F918
:103EF000257720680169C943C90617D4C168C94339
:103F0000C90613D46FF010010161082020772068E2
:103F1000C06910F4407F204602D0FFF791FF04E013
:103F200000F098F8204600F02AF92577206801690A
:103F3000C943C90708D1C168C943C90704D1891E4B
:103F40000161204600F080F920680169C943090633
:103F500009D4C168C943090605D46FF08001016125
:103F60002046FFF7F0FD20680169C943490609D4DE
:103F7000C168C943490605D46FF04001016120467C
:103F800000F06CF920680169C94389060BD4C16847
:103F9000C943890607D46FF0200101612046BDE8BE
:103FA0007040FFF7D1BD70BD30B587B00446142115
:103FB0006846FCF7C3F921482368002220490224FF
:103FC00083420ED1086840F0020008600868694624
:103FD00000F00200059020200090CDE90142194830
:103FE00011E0194D1948AB4214D10B6843F080031E
:103FF0000B60096801F0800105914FF4E0510091D8
:10400000CDE901426946CDE9032400BFFEF764FF14
:1040100007B030BD0E4DAB42FAD10B6843F08003C0
:104020000B60096801F08001059140210091CDE904
:1040300001420921CDE903216946E7E70004004078
:104040003038024000040240000C0040001C0240D6
:1040500000180040704770B5044690F83C000026F8
:104060000D4601280FD0012084F83C006AB1042AD3
:104070001DD0082A2FD00C2A3FD00126002084F81A
:104080003C00304670BD022070BD206803F0E4FDA6
:104090002068816941F0080181612068816921F00F
:1040A00004018161206881692A69114311E0206857
:1040B00003F002FE2068816941F40061816120689B
:1040C000816921F480618161206881692A6941EAFE
:1040D00002218161D2E7206803F024FE2068C169D3
:1040E00041F00801C1612068C16921F00401C1618A
:1040F0002068C1692A69114311E0206803F046FE77
:104100002068C16941F40061C1612068C16921F47E
:104110008061C1612068C1692A6941EA0221C161E7
:10412000ACE710B5040003D094F83D0010B107E0EF
:10413000012010BD002084F83C00204600F01EF84D
:10414000022084F83D00211D206803F001FD0120BC
:1041500084F8460084F83E0084F83F0084F840006C
:1041600084F8410084F8420084F8430084F8440055
:1041700084F8450084F83D00002010BD704770476A
:1041800010B50446022249B104290ED0082913D0E3
:1041900094F84100012816D0012010BD94F83E008B
:1041A0000128F9D184F83E200FE094F83F0001285F
:1041B000F2D184F83F2008E094F840000128EBD1C8
:1041C00084F8402001E084F841200122206803F0B7
:1041D00023FD16492068164A884201D0904203D137
:1041E000436C43F4004343642068884213D0B0F129
:1041F000804F10D00F4988420DD00F4988420AD015
:104200000E49884207D0904205D00D49884202D01D
:104210000C49884204D1816801F00701062903D0C6
:10422000016841F001010160002010BD0000014063
:10423000000401400004004000080040000C004061
:10424000004001400018004000680349884201D145
:10425000FEF768BF704700000010004070477047CD
:1042600070470000F8B5016804460868CA684B69E1
:1042700010F00F0F4FF0000559D003F0010602F4C3
:104280009077374365D0C10705D0D10503D5216CA0
:1042900041F001012164410705D5D90703D0216C04
:1042A00041F002012164810705D5D90703D0216CB3
:1042B00041F004012164010707D502F020013143D8
:1042C00003D0216C41F008012164216C00293AD00F
:1042D000800604D5900602D5204603F0ECFD206848
:1042E0004069216CC0F38010090700D460B32046F8
:1042F00003F0BAFD20684069400621D520681430DB
:1043000050E8001F21F0400140E80012002AF5D1DA
:10431000A06BA8B16C490165A06BFEF75BFC00289F
:1043200011D0A06B016D01B0BDE8F04008478306D5
:104330000FD593060DD52046BDE8F84003F0BBBD70
:104340002046FFF78DFFF8BD2046FFF789FF256463
:10435000F8BD266B2023012E79D1C60677D5D60667
:1043600075D50868486800904869400640D5A16B3B
:10437000086840680004000CEAD0A28D8242E7D9A8
:10438000E085C869B0F5807F2DD020680C3050E8FA
:10439000001F21F4807140E80012002AF5D1206846
:1043A000143050E8001F21F0010140E80012002AFB
:1043B000F5D12068143050E8001F21F0400140E89A
:1043C0000012002AF5D184F83E30256320680C30B5
:1043D00050E8001F21F0100140E80012002AF5D13A
:1043E000A06BFEF7AEFBA08DE18D401A81B229E0F3
:1043F000A08DE18D401A81B2E08D0028A8D000295F
:10440000A6D020680C3050E8002F22F4907240E8CB
:104410000026002EF5D12068143050E8002F22F03D
:10442000010240E80026002EF5D184F83E302563D5
:1044300020680C3050E8002F22F0100240E80023E2
:10444000002BF5D12046FFF70AFFF8BDFFE7050670
:104450002BD5150629D594F83D002128F5D1A06863
:10446000B0F5805F01D12069B0B1206A411C2162A2
:10447000216800784860E08C401E0004000CE08455
:10448000E3D12068C16821F08001C1602068C16863
:1044900041F04001C160D8E7206A0088C0F30800FD
:1044A0004860206A801C2062E5E74006CDD55006B2
:1044B000CBD5CA68204622F04002CA6084F83D305D
:1044C00000F0D5F9C1E70000597E000870B504007E
:1044D00004D094F83D00002510B106E0012070BD25
:1044E00084F83C50204600F023F8242084F83D0056
:1044F0002068C16821F40051C160204603F03CFDF2
:104500002068016921F4904101612068416921F02E
:104510002A0141612068C16841F40051C1602564ED
:10452000202084F83D0084F83E00002070BD00008B
:104530002DE9F04F87B0044614216846FBF7FEFED4
:104540009148DFF840821038D4F800C08E4B022129
:1045500003228715002506154FF0080BC4453FD1EF
:10456000D3F800C04CF0804CC3F800C01B6803F0C7
:1045700080430593036843F010030360006800F074
:1045800010000590D0018DE82300CDE9032B69468A
:104590007E48FEF7A1FCDFF8FC817D494046C8F863
:1045A00000104FF02061C0E90115C0E90356C8F8BA
:1045B0001450B101C8F81850C8E90771C8F8245060
:1045C000FEF7EAFB08B1FDF79AFCC4F83880002238
:1045D00005215220C8F83840FEF73CFE52204CE03E
:1045E000DFF8B481DFF8A0914FF0070A09F1040960
:1045F000C44547D1D9F800C04CF0100CC9F800C030
:10460000D9F8003003F010030593036843F0020368
:104610000360006800F002000590C0208DE82300D0
:10462000CDE9032A69465D48FEF756FCDFF8648150
:104630005B4908F160084046C8F800104FF000617F
:10464000C0E90115C0E90356C8F814504FF44031D1
:10465000C8F81850C8E90771C8F82450FEF79CFB49
:1046600008B1FDF74CFCC4F8388000220521252054
:10467000C8F83840FEF7EEFD2520FEF7DDFD07B057
:10468000BDE8F08FDFF81C81C4455AD1D3F800C0D3
:104690004CF4802CC3F800C01B6803F480230593FE
:1046A000036843F008030360006800F00800059009
:1046B0004FF440708DE82300CDE9032A69463A485B
:1046C000FEF70AFCDFF8CC80314908F1C008303928
:1046D0004046C8F800104FF00061C0E90115C0E97C
:1046E0000356C8F81450C0E90657C8F82050C8F857
:1046F0002450FEF751FB08B1FDF701FC24482B4F75
:10470000C4F838801830C8F8384038604005786000
:1047100007F10801402081E861007D61BD61FD6114
:104720003D6238467D62FEF737FB08B1FDF7E7FBD7
:104730006763002205212720BC63FEF78BFD27203D
:104740009BE71B4B9C459AD1D9F8004044F02004CC
:10475000C9F80040D9F8003003F02003059303683E
:1047600043F040030360006800F0400005904FF400
:1047700084408DE82300CDE9032B69460D48FEF700
:10478000ABFB7CE70078004040380240001002405C
:1047900058600240900D00200010014000040240CB
:1047A0004064024000480040000C0240B00E00206F
:1047B0000014014000180240704700002DE9F84342
:1047C000044690F83D001F4616460D4620284CD161
:1047D000C5B1BEB194F83C00012846D0012084F850
:1047E0003C004FF00008C4F84080212084F83D00D0
:1047F000FEF792FCA6848146E684A068B0F5805F4F
:1048000003D004E00120BDE8F883206928B12E46DA
:104810005FF0000584F83C800EE00026FAE7802176
:10482000204603F02FFCA0B9AEB116F8010B2168A9
:104830004860E08C401EE084E08C4B464FF0000264
:1048400000970028EBD14FF04001204603F01AFCFE
:1048500030B10320D7E735F8020BC0F30800E6E7D4
:10486000202084F83D000020CDE70220CBE77047F0
:10487000FEE700002DE9F04FDFF8CCC0DFF8CCA058
:104880000CF12408099F002408F124090AF10C0BFB
:1048900004EB44060CEB860593ED050AD5ED000A02
:1048A00095ED011A20EE200AD3ED060A00EE810AEA
:1048B000D3ED070A95ED021A00EB840500EE810A9C
:1048C00085ED000A08EB860593ED010AD5ED000A97
:1048D00095ED011A20EE200AD3ED020A00EE810ABE
:1048E000D3ED030A95ED021A0AEB840500EE810A66
:1048F000D5ED000A01EB840530EE200A85ED000AB3
:1049000009EB860597ED010AD5ED000A95ED011A30
:1049100020EE200AD7ED020A00EE810AD7ED030A45
:1049200095ED021A0BEB840500EE810AD5ED000A25
:1049300002EB8405641CE4B2032C30EE200A85ED02
:10494000000AA5D3BDE8F08F24060020E41600205D
:10495000064810B590F9000000EE100AB8EEC00A43
:1049600000F0D8F8BDE8104003F060BC400500201E
:1049700008B507F06BFD084C084D094E00902078F3
:10498000012803D168688047B068804701216846E4
:1049900007F080F9F3E700001806002088050020E2
:1049A000A006002030B5554C2278520603D5027877
:1049B00042F00202027003789A070BD5504A5578EC
:1049C0006D1CEDB255700A2D04D90025557023F0E9
:1049D000020202702278D307484A02F110026BD01B
:1049E000037843F001030370B2F9003000EE103A8F
:1049F000F8EEC00A9FED430A60EE800AC0ED010A9E
:104A0000B2F9023000EE903AF8EEE00A60EE800A69
:104A1000C0ED020AB2F9043000EE903AF8EEE00A76
:104A200020EE800A80ED030AB2F90C3000EE103A55
:104A3000F8EEC00A9FED341A80EE810AF3EE050A03
:104A400030EE200A80ED040AB2F90E3000EE103A82
:104A5000F8EEC00A9FED2D0A60EE800AC0ED050A4F
:104A6000B2F9103000EE903AF8EEE00A60EE800AFB
:104A7000C0ED060AB2F9123000EE903AF8EEE00A04
:104A800020EE800A80ED070AB2F90E3000EE103AEF
:104A9000B8EEC00A80ED080AB2F9103000EE103A04
:104AA000B8EEC00A80ED090AB2F9123000EE103AF1
:104AB000B8EEC00A80ED0A0AB2F9060000EE100A4C
:104AC000F8EEC00A9FED120A60EE800AC1ED010AFD
:104AD000B2F9080000EE900AF8EEE00A60EE800AF3
:104AE000C1ED020AB2F90A0000EE900AF8EEE00AFF
:104AF00020EE800A81ED030A30BD0000FC16002084
:104B000018060020CDCC1C3A5CEFA64358A00B3A07
:104B10009A99993E70B51A481A491B4D4278D1EDC1
:104B2000040A00F108049AB1E16B0830884794ED5B
:104B30000B0AB5EEC00AF1EE10FA03D29FED130A8C
:104B400084ED0B0ABCEEC00A10EE100A80B214E02D
:104B5000F4EEC00A0121F1EE10FA0BD28278521C59
:104B6000D2B28270142A06D941709FED090A84EDF1
:104B7000090A00E0417041F287302968886370BDFE
:104B8000400500209C100020600B00200000000069
:104B900000401C4538B50446006801684068009034
:104BA000A06B0068016821F001010160A06B006842
:104BB00040680C490884A0F28510404280B200F0A1
:104BC0003BF8A16B40F2851009684860A06B006853
:104BD000016841F001010160024946314888401CEA
:104BE000488038BDD006002038B5016800250A6825
:104BF0004A680092CA6842F40052CA600168CA68F2
:104C000042F01002CA6004460A4A90F83E0040F2A0
:104C1000851320280CD1A262A38525642168A06B8E
:104C2000091DFEF723F92068416941F04001416107
:104C300038BD0000D11D00202DE9F047DFF840A36A
:104C400007460024DFF834934FF001080AF2796632
:104C50008AE1305DA5287DD1351940F20221B5F8F1
:104C60000500A0F20222884275D017DC40F2011143
:104C7000A0F2011288426FD006DC06286AD2DFE873
:104C800000F069223844566C012A7DD0032A7CD07A
:104C9000042A7BD0B2F5807FDDD1B7E0052A76D03B
:104CA00008DC012A74D0022A73D0032A72D0042AA5
:104CB000D1D1F7E0062A6ED0072A6DD0082A6CD031
:104CC000FF2AC8D143E12846142103F02BFC002819
:104CD00040D055F8071FCAF800106968CAF80410D8
:104CE0002989AAF80810A97A8AF80A108AF80B808C
:104CF00048E028460A2103F015FC0028E8D0E979AD
:104D000089F822109D4922317DE02846292103F0AF
:104D100009FC0028DCD09A48E91D20220C30FBF762
:104D2000F4FA97490C31293481F820801CE1284697
:104D30000C2103F0F7FB0028CAD0B5F80710A9F83A
:104D40003210697A89F834108C4932310C3481F888
:104D5000038009E197E06BE020E02846142103F08E
:104D6000E1FB0028B4D0504655F8071F40F82D1F2E
:104D70006968416029890181A97A817280492D3150
:104D800081F80B801434EFE015E021E030E094E08E
:104D90005DE06DE078E0A4E0B6E0C4E028460D21D7
:104DA00003F0C0FB00286ED0D5F80710C9F8361004
:104DB00072493631B3E028460D2103F0B3FB0028D9
:104DC00061D0D5F80710C9F83B106C493B31A6E01B
:104DD00028460B2103F0A6FB002854D0B5F8071095
:104DE000A9F82C1065492C310B3481F80280BBE006
:104DF00028460A2103F096FB002844D0E97989F877
:104E000024105E49243181F8018049E028461621AA
:104E100003F088FB002836D05948E91D1B223930A1
:104E2000FBF773FA56493931163481F81B809BE041
:104E30002846192103F076FB002824D05048E91DAC
:104E400010225530FBF761FA4D4955310CE02846E8
:104E5000192103F067FBB0B14948E91D1022663003
:104E6000FBF753FA46496631193481F810807BE02C
:104E700028460A2103F056FB28B1E97989F8261063
:104E80003E492631BFE73EE028460A2103F04AFBAF
:104E9000C8B3E97989F82F1038492F3181F8028099
:104EA0000A3461E028460A2103F03CFB58B3E97953
:104EB00089F8281031492831A5E72846102103F048
:104EC00031FB00B3484655F8071F40F8591FA98821
:104ED0008180A979817129495931103481F807807D
:104EE00042E028460F2103F01DFB60B1484655F80B
:104EF000071F40F8521FA9888180204952310F3482
:104F000081F8068030E02EE028460D2103F00AFBF0
:104F100048B3D5F80710C9F84010184940310D348E
:104F200081F8048020E02846152103F0FBFAD0B177
:104F3000504655F8071F40F8771F69684160A96817
:104F400081600F497731153481F80C800CE02846D8
:104F5000232103F0E7FA30B1E91D1A220948FBF7D3
:104F6000D4F9233400E0641CBC42FFF672AE03495E
:104F70004C314888401C4880BDE8F087D0060020AE
:104F800058170020561F00209FED0A1A80ED001AC6
:104F900080ED051A80ED090AC0ED0A0AB7EE000A95
:104FA00080ED070A80ED081A80ED0B0A80ED011AEA
:104FB000704700000000000070B53B4CA520207039
:104FC0003320A4F801000020E07004F20E40A0F5A8
:104FD000906151F8722F40F86E2F09790171052107
:104FE00004F27C40FCF73CF940F2013024F8050F54
:104FF00005F0DEFD4FF4887060802C480078A080BA
:105000002B48408D24F8060F0220E07034F8050F7D
:1050100020F47070403024F81009207C20F0070044
:10502000401C40F038002074607C20F03C000830C8
:105030006074B4F81110192060F38E11A4F81110E7
:10504000618A60F3CF116182A08A0A216FF309009F
:10505000401CA082B4F8150061F38C00A4F8150080
:10506000E08A4FF4117161F34F10E0820E4811A1F4
:105070001C300546FBF779F911A12846FBF775F9B5
:105080003522611D1248FBF740F911483C21401FB1
:10509000FCF7D2F8BDE870400D493C22FF23491FC0
:1050A0000C48FFF78BBB0000CA1C002091170020A2
:1050B000D0060020202020202020202020000000DA
:1050C00053686F743A5370696E3A4D6167610000BE
:1050D0004B210020080D002070B53B4CA52020700E
:1050E0003320A4F801000020E07004F25240A0F543
:1050F000906151F82E2F40F8522F09790171052146
:1051000004F2A440FCF7ACF840F2013024F8050F9B
:1051100005F04EFD4FF4887060802C481421007813
:10512000A0802B48408D24F8060F0320E07034F84F
:10513000050F20F47070403024F81009207C20F016
:105140000700401C40F038002074607C20F03C00D8
:105150000C306074B4F8110061F38E10A4F81100E3
:10516000608A192161F3CF106082A08A40F2DC517D
:105170006FF30900401CA082B4F8150061F38C00A5
:10518000A4F81500E08A491061F34F10E0820E4840
:1051900010A11C300546FBF7E8F811A12846FBF7E3
:1051A000E4F83522611D1348FBF7AFF811483C21A4
:1051B000401FFCF741F8BDE870400E493C22FF2338
:1051C000491F0D48FFF7FABA061D0020911700206D
:1051D000D0060020202020202020202020000000B9
:1051E000436861737369734D6F64653A4E6F726D96
:1051F000616C0000AF210020080D002010B5294C83
:10520000A52004F8010B332020800020A070264840
:10521000A0F5906151F82E2F40F8522F09790171B5
:10522000214805215230FCF71BF840F20130A080E4
:1052300005F0BEFC4FF48870E0801C4800782081A7
:105240001B48408D60810320607314F80F0F20F01D
:105250000700801C04F810091648017811481C301A
:1052600021B1082904D00A2905D118E012A100E0D3
:1052700018A1FBF77AF80C483522611D5730FBF76F
:1052800044F809483C215230FBF7D6FF06493C223E
:10529000FF23BDE8104052311348FFF78FBA13A126
:1052A000E7E70000061D002058210020911700208C
:1052B000D006002034050020436861737369734D84
:1052C0006F64653A436C6F7564466F6C6C6F7720E2
:1052D00020000000436861737369734D6F64653A21
:1052E0004C6F636B20200000080D00204368617341
:1052F0007369734D6F64653A44697361626C6520CC
:105300002020200070B53B4CA52020703320A4F84D
:1053100001000020E07004F2DA40A0F5A06151F82D
:10532000262FC0F81A200979817705211A30FBF75A
:1053300097FF40F2013024F8050F05F039FC4FF4D7
:10534000887060802C4832210078A0802B48408DE6
:1053500024F8060F0520E07034F8050F20F4707073
:10536000403024F81009207C20F00700401C40F059
:1053700038002074607C20F03C00001D6074B4F89C
:10538000110061F38E10A4F81100608A102161F3FE
:10539000CF106082A08A40F2DA216FF30900401D2D
:1053A000A082B4F8150061F38C00A4F81500E08A1F
:1053B000DC2161F34F10E0820E4811A11C3005463C
:1053C000FAF7D3FF11A12846FAF7CFFF3522611D66
:1053D0001248FAF79AFF11483C21401FFBF72CFFB7
:1053E000BDE870400D493C22FF23491F0C48FFF7E0
:1053F000E5B900007E1D002091170020D006002096
:105400002020202020202020200000002020204ECE
:105410004F21212020202020202000007722002062
:10542000080D002070B52C4DA520002605F8010BB5
:10543000332028802948AE70A0F5A06151F8262FAE
:10544000C0F81A200979817705211A30FBF708FF87
:1054500040F20130A88005F0ABFB4FF48870E88083
:105460001F48204C00782881608D68810520687372
:1054700015F80F0F20F00700801C05F810091A48D6
:10548000018915481C3019B118A1FAF76EFF0EE01A
:105490002179282901D819A100E01CA1FAF765FF9C
:1054A0002079401C2071C0B2502800D326710B48CF
:1054B0003522691D1F30FAF728FF08483C211A30B1
:1054C000FBF7BAFEBDE8704004493C22FF231A31C5
:1054D0001148FFF773B900007E1D002058220020FC
:1054E00091170020D0060020C41100202020205356
:1054F00070696E2020202020202000002020204ED7
:105500004F212120202020202020000020202020AA
:105510002020202020200000080D002070B53B4CEA
:10552000A52020703320A4F801000020E07004F2D0
:105530009640A0F5A06151F86A2F40F8362F0979FE
:105540000171052104F2CC40FBF78AFE40F20130E4
:1055500024F8050F05F02CFB4FF4887060802C4870
:105560000078A0802B48408D24F8060F0420E070BE
:1055700034F8050F20F47070403024F81009207CB6
:1055800020F00700401C40F038002074607C20F0C0
:105590003C00001D6074B4F81110192060F38E11E6
:1055A000A4F81110618A60F3CF116182A08A40F2E1
:1055B000AA516FF30900401CA082B4F8150061F3F2
:1055C0008C00A4F81500E08A4FF4FF7161F34F10CE
:1055D000E0820E4810A11C300546FAF7C6FE11A164
:1055E0002846FAF7C2FE3522611D1348FAF78DFEF0
:1055F00011483C21401FFBF71FFEBDE870400E49DB
:105600003C22FF23491F0D48FFF7D8B8421D002058
:1056100091170020D00600202020202020202020CC
:10562000200000005371756172653A5553455F5310
:1056300055503A535550000013220020080D002009
:1056400070B53B4CA52020703320A4F80100002049
:10565000E07004F24A40A0F5906151F8362FC0F88E
:105660000A200979817305210A30FBF7F9FD40F220
:10567000013024F8050F05F09BFA4FF48870608024
:105680002C4814210078A0802B48408D24F8060F68
:105690000120E07034F8050F20F47070403024F8D9
:1056A0001009207C20F00700401C40F038002074D6
:1056B000607C20F03C00001D6074B4F8110061F3C0
:1056C0008E10A4F81100608A0C2161F3CF10608263
:1056D000A08A40F2DC516FF30900401CA082B4F8AC
:1056E000150061F38C00A4F81500E08A40F23E3109
:1056F00061F34F10E0820E4810A11C300546FAF706
:1057000034FE11A12846FAF730FE3522611D1148FA
:10571000FAF7FBFD0F483C21401FFBF78DFDBDE86C
:1057200070400C493C22FF23491F0B48FFF746B845
:105730008E1C002091170020D00600202020202061
:105740002020202020000000467269633A4D616EDF
:1057500075616C00E7200020080D002010B52C4C6E
:10576000A52004F8010B332020800020A0702948D8
:10577000A0F5906151F8362FC0F80A20097981739D
:1057800005210A30FBF76CFD40F20130A08005F0E6
:105790000FFA4FF48870E0801F48017821811F497B
:1057A000498D61810121617314F80F1F21F00701F8
:1057B000891C04F81019018B00F2195029B30F2924
:1057C00006D0122906D0162906D01E2909D105E0D7
:1057D00013A104E015A102E017A100E019A1FAF756
:1057E000C4FD0C483522611D0F30FAF78EFD0948C3
:1057F0003C210A30FBF720FD06493C22FF23BDE88F
:1058000010400A311248FEF7D9BF12A1E7E70000A5
:105810008E1C0020D820002091170020D0060020E8
:10582000467269633A3135200000000046726963B0
:105830003A31382000000000467269633A32322063
:1058400000000000467269633A3330200000000017
:10585000080D0020467269633A506F7765724F46B3
:10586000462000007FB5002204462748009201929E
:105870000292039240890E46244BA0F57F41FF39E6
:105880002AD0DA6000209A6034F91010002900DA7A
:105890004942401CC0B20A440428F5D39A60002053
:1058A0006D46DA6034F9101000EE101A05EB800135
:1058B000401CF8EEC00A00EE102AC0B20428B8EE70
:1058C000C00A80EE801A81ED001AEBD300F020F8B8
:1058D000002093ED030A13E09868D8607FBD00BFF5
:1058E00005EB8001B8EEC01AD1ED000A60EE810A26
:1058F000FDEEE00A10EE901A24F81010401CC0B221
:10590000B042EDDB7FBD0000911700205004002065
:105910001048B0F90810104800EE101AC1F13C020E
:10592000018012B24280F8EEC00A90ED011A002AFE
:1059300080EE810A20EE000A80ED040A09DDD0ED38
:10594000020AF8EEE00A20EE800ABDEEC00A80ED01
:10595000030A7047AD1700205004002010B5A0F2D4
:105960000120DDE90512C0EB00148BB209485BBAD7
:1059700000EBC400090C438049BA818091B249BA56
:10598000C180110C0172818B491C818301218176B8
:1059900010BD0000E411002030B53249DDE90623D6
:1059A000A0F2052051F8204094ED000ABCEEC00A98
:1059B00010EE105A258294B264BA00EE104A51F8E3
:1059C0002040120CB8EE400A52BA84ED000A51F899
:1059D0002040A2809AB251F8203052BADA8051F8B1
:1059E0002020138AD2ED000A00EE103A1E4BB8EECA
:1059F000400A30EEC00A10EE104A9C4202D9148BC5
:105A0000641C148351F82020148AD2ED000A00EEA1
:105A1000104AB8EE400A30EE600A10EE104A9C427E
:105A200002D9138B5B1E138351F82020B2F9183072
:105A3000D2ED000A5B0300EE103AB8EEC00A30EE79
:105A4000800ABDEEC00A82ED050A51F8203033F815
:105A50007E2F521C1A8051F82000012280F87C20F1
:105A600030BD0000F40500200020CBC57FB5002428
:105A700015480094019402941249039401604FF474
:105A80008031C0E901140461047680F820400F4998
:105A9000C0E90A140125C561C46080F83040456141
:105AA000FCF754FC08B1FCF72AFA0948CDE90005D7
:105AB000694602940448FCF797FB002801D0FCF7E4
:105AC0001EFA7FBD00200140280A00200100000FBF
:105AD000120000100F4810B50D4901600721416008
